:020000040800F2
:10000000A81F00209D0100088B240008052000087F
:1000100089240008F5090008812800080000000074
:1000200000000000000000000000000005010008C2
:10003000F709000800000000490100081925000820
:10004000B7010008B7010008B7010008B7010008B0
:10005000B7010008B7010008B7010008B7010008A0
:10006000B7010008B7010008B7010008B701000890
:10007000B7010008B7010008B7010008B701000880
:10008000B7010008B7010008B7010008B701000870
:10009000B7010008B7010008B7010008B701000860
:1000A000B7010008B7010008B7010008B701000850
:1000B000B7010008B7010008A5250008B70100082E
:1000C000B7010008B7010008B7010008B701000830
:1000D000B70100086928000875280008B701000862
:1000E000B7010008B7010008B7010008DFF810D019
:1000F00000F07EFB0048004789310008AFF3008024
:10010000A81F0020224B19680868B0E8F00F80F3A0
:100110000988BFF36F8F4FF0000080F311884EF015
:100120000D0E70470000000006480068006880F36C
:10013000088862B661B6BFF34F8FBFF36F8F00DFE1
:1001400000BF00BF08ED00E0EFF30980BFF36F8F41
:100150000F4B1A6820E9F00F106008B54FF05000FF
:1001600080F31188BFF34F8FBFF36F8F03F064FFED
:100170004FF0000080F31188BDE808401968086856
:10018000B0E8F00F80F30988BFF36F8F704700BFAE
:1001900034000020EFF305807047000006488047D8
:1001A00006480047FEE7FEE7FEE7FEE7FEE7FEE75C
:1001B000FEE7FEE7FEE7FEE7A3250008ED000008E6
:1001C000202A04DB203A21FA02F00021704721FAAC
:1001D00002F3D040C2F12002914008431946704713
:1001E00040EA01039B0703D009E008C9121F08C0B9
:1001F000042AFAD203E011F8013B00F8013B521E39
:10020000F9D27047D2B201E000F8012B491EFBD2AF
:1002100070470022F6E710B513460A460446194611
:10022000FFF7F0FF204610BDF0B480EA0102D40FC2
:100230004200B2EB410F02D20246084611464A0084
:1002400042D0C30DDDB2C1F3C752AD1A202D35DA4D
:10025000C1F3160141F4000204B15242C5F1200677
:1002600002FA06F12A411044B3EBD05F23D0C4B1A7
:10027000012DA0EBC35009DCF0BC4FF0004202EAB4
:10028000C352DBB200F5000000F0CCB8400000F132
:10029000807000EBC350A0F1807040EAD17049003B
:1002A00009E0490841EAC071A0EBC35000F5000025
:1002B000400800EBC350F0BC00F0ABB86142012233
:1002C00002EB4101001BF6E7F0BC704781F00041F2
:1002D000AAE780F00040A7E780EA010210B502F02B
:1002E0000043400022D04A001FD0010E01EB1261F2
:1002F000C0F35600C2F3560240F4000042F400027C
:10030000A0FB022000047F39140400D0401C50EAF6
:10031000124001D44000491EC2B20C0604EBD010BA
:10032000401C4008802A02D003E0002010BD20F0CD
:100330000100002900DA0020184310BD420005D05A
:10034000C0F3C7525242914201DC0020704700EBDB
:10035000C150704796230022114600F063B800F0A8
:10036000004230F000400AD0C10D01F56071C0F3C9
:10037000160042EA0151C2084007114370470020AD
:100380000146704730B50B4601460020202201246B
:1003900009E021FA02F59D4205D303FA02F5491B53
:1003A00004FA02F52844151EA2F10102F1DC30BD69
:1003B0002DE9F05F0546002092469B46884606469A
:1003C000814640241BE02846414647462246FFF727
:1003D000F7FE53465A46C01A914110D311461846AB
:1003E000224600F017FA2D1A67EB01084F46224605
:1003F0000120002100F00EFA17EB00094E41201EEB
:10040000A4F10104DFDC484631462A464346BDE8F4
:10041000F09F0029A8BF7047401C490008BF20F08A
:100420000100704710B4B0FA80FC00FA0CF050EAFA
:10043000010404BF10BC704749B1CCF1200421FA7B
:1004400004F411FA0CF118BF012121430843A3EB76
:100450000C01CB1D4FEA00614FEA102042BF002083
:1004600010BC704700EBC35010440029A4BF10BC5F
:100470007047401C490008BF20F0010010BC7047C5
:100480002DE9FE4F804681EA0300C00F0C46009024
:1004900021F0004123F00045B8EB0200A94105D24C
:1004A0004046214690461C460B46024623F000403B
:1004B000104347D0270DC7F30A00C3F30A51029037
:1004C000401A019040286BDAC3F3130040F4801BFC
:1004D0000098924620B10023D2EB030A63EB0B0B8A
:1004E00001985946C0F14002504600F093F9064683
:1004F0000D4650465946019A00F09BF910EB080052
:100500006141002487EA115284EAE7731A4340D01C
:10051000009A62B3019A012A4FEA075215DC001BC8
:1005200061EB02014FF0004202EA0752CDE90042BE
:10053000001C41F5801132462B4600F09BF903B0B8
:10054000BDE8F08F40462146F9E7001B61EB020150
:10055000001C41F5801300185B412018A2F500171C
:1005600047EB030140EAD570B6196D4111E06D0803
:100570004FEA360645EAC0754FEA0752001B61EBA9
:100580000201001C41F5801149084FEA30000019B2
:10059000514132462B4603B0BDE8F04F00F05BB945
:1005A0000098012240000023D0EB020263EBE073CD
:1005B000009821464FEAE074B8EB000061EB0401BB
:1005C000E9E783F000435BE781F0004158E72DE95C
:1005D000FE4F81EA030404F0004421F0004100943E
:1005E0004FF0000B23F0004350EA01045ED052EAC2
:1005F00003045BD0C3F30A54C1F30A552C44A4F29C
:10060000F3340194A0FB0254C1F3130141F48011AF
:10061000C3F3130343F4801301FB024400FB034EB6
:10062000840A970A44EA815447EA8357A4FB07687F
:1006300002958D0A05FB07854FEA932C04FB0C54A9
:100640002705029D4FEA065847EA1637B5EB08051D
:100650006EEB070C870E920E47EA811742EA83126F
:10066000A7FB0201B6EB0B0164EB00042B0D43EA80
:100670000C335E1844EB1C50DA465146E7FB02018E
:10068000C5F313044FEA0B3343EA14534FEA043221
:10069000019C43EA0603A4F10C040294009CCDE9FA
:1006A00000B400F0E7F803B0BDE8F08F0020014689
:1006B000F9E72DE9F04D81EA030404F0004B21F045
:1006C000004514464FF0000A23F0004150EA0502AD
:1006D00020D054EA01021DD0C5F30A570246C5F3E3
:1006E0001303C1F31300C1F30A5640F4801543F419
:1006F0008013A7EB0608101BD64608F2FD3873EBF3
:10070000050002D308F1010801E092185B41B8F13D
:10071000000F03DA00200146BDE8F08D00204FF401
:100720008011064684460EE0171B73EB050705D3C0
:10073000121B63EB050306434CEA010C49084FEA20
:10074000300092185B4150EA0107EDD152EA0300F4
:1007500012D082EA040083EA0501084305D0101B89
:10076000AB4106D20122002306E000224FF00043F5
:1007700002E06FF0010253101AEB06004CEB085137
:1007800010EB0A0041EB0B01BDE8F04D00F063B83F
:10079000C1F30A52C1F3130140F2FF3341F4801157
:1007A0009A4202DA00200146704740F233439A42EF
:1007B000A2F2334202DC5242FFF702BD00F02AB837
:1007C00030B5041E71F1000404DB4FF000444042D8
:1007D00064EB0101141E73F1000405DB1C464FF0AD
:1007E0000043524263EB0403994208BF904230BD7C
:1007F000064C074D06E0E06840F0010394E807006E
:1008000098471034AC42F6D3FFF774FC044B000851
:10081000244B0008202A04DB203A00FA02F10020D1
:1008200070479140C2F1200320FA03F3194390402E
:100830007047202A06DBCB17203A41FA02F043EA40
:10084000E07306E041FA02F3D040C2F12002914089
:1008500008431946704710B5141E73F1000408DAF6
:10086000401C41F1000192185B411A4301D120F074
:10087000010010BD2DE9F04D92469B4611B1B1FA31
:1008800081F202E0B0FA80F220329046FFF7C2FF18
:1008900004460F4640EA0A0041EA0B0153465A4615
:1008A000084313D0114653EA010019D0C8F14002A1
:1008B0005046FFF785FC05460E46504659464246CF
:1008C000FFF7A8FF084305D0012004E02046394681
:1008D000BDE8F08D0020054346EAE0762C4337431F
:1008E0000A986305E40AA0EB08000022FD0A44EA26
:1008F00047540A3002D500200146E9E701051019E6
:100900006941DDE9084500196941BDE8F04DA2E7FC
:100910007CB515460C46064600F05CF840B9502000
:1009200000F0DAF806226946304600F049F808B1CE
:1009300001207CBD9DF801009DF80210000340EAF3
:1009400001109DF8031040EA1110FFF703FD114953
:10095000FFF7C2FC6FF013063146FFF7EFFC28608B
:100960009DF803009DF804100007000B40EA0120E9
:100970009DF805100843FFF7EDFC0749FFF7ACFCB5
:100980003146FFF7DBFC0549FFF7A0FC20600020A3
:100990007CBD00000000C8420000484300004842FF
:1009A0001CB506A10323096801914FF0FF310091A6
:1009B00001AA702100F08CFB1CBD0000E1080000C2
:1009C00008B54FF0FF33009313460A46702100F03C
:1009D0005DFA08BD1CB506A10323096801914FF01B
:1009E000FF31009101AA702100F072FB1CBD0000D4
:1009F000AC330000FEE7704710B590F821100022DC
:100A0000022905D00421816380F82020012010BD37
:100A100001680B6823F00E030B6001680B6823F07C
:100A200001030B6090F84030C46B012101FA03F31D
:100A3000636080F8211080F82020104610BD00006F
:100A400010B590F821100024022903D004218163FD
:100A500001243DE001680A6822F00E020A60016884
:100A60000A6822F001020A601A4A0168914201D123
:100A7000012121E0174A1432914201D110211BE0DB
:100A8000144A2832914201D1891515E0114A3C32AD
:100A9000914201D189140FE00E4A5032914202D1A5
:100AA0004FF4803108E00B4A6432914202D14FF496
:100AB000801101E04FF08071064A083A516001212F
:100AC00080F82110002180F82010416B01B1884787
:100AD000204610BD0800024070B5044600F00CF935
:100AE0000546601C02D004480078044400F004F974
:100AF000401BA042FAD370BD240000202DE9F84F1E
:100B0000DFF8B891002409F1040A0AF1040B234626
:100B10000F270BF1040EC9E00125A5402A40AA4287
:100B20007DD1674ED1F804C0ACEB0608B44532D095
:100B300014DCBCF1030F3AD009DCBCF1000F2AD061
:100B4000BCF1010F1CD0BCF1020F31D11DE0BCF192
:100B5000110F17D0BCF1120F2AD119E0B8F5881F78
:100B600019D006DCB8F5803F15D0B8F5801F1FD12D
:100B700011E0B8F5001F0ED0B8F5041F18D10AE037
:100B8000CB6815E0CB681B1D12E0CB6808330FE083
:100B9000CB680C330CE08B682BB1012B4FF00803B2
:100BA00003D0456104E0042302E0056100E0002376
:100BB000FF2A01D8064601E000F104064FEA840549
:100BC00001D9A5F12005D6F8008007FA05FC28EA2E
:100BD0000C0803FA05F548EA0508C6F800804D68D8
:100BE000ED0062D5374DAE6946F00106AE61AD69E4
:100BF00024F0030605F001050095334D06EB050CC6
:100C0000DCF80850A607360F07FA06F825EA0805AB
:100C1000DFF8B880404503D14FF0000817E044E00A
:100C2000DFF8AC80404502D14FF001080FE0DFF85B
:100C3000A480404502D14FF0020808E0DFF8988018
:100C4000404502D14FF0030801E04FF0040808FAD4
:100C500006F848EA0508CCF808804D68D9F8006025
:100C6000ED034D4601D5164300E096432E604D68D6
:100C7000DAF80060AD03554601D5164300E096430F
:100C80002E604D68DBF80060ED025D4601D516432D
:100C900000E096432E604D68DEF80060AD027546B8
:100CA00001D5164300E096432E60641C0D682A4669
:100CB000E5407FF431AFBDE8F88F0000000401404B
:100CC0000000111000100240000001400008014027
:100CD000000C01400010014000140140C26821EAEC
:100CE00002030A4043EA0241016170470AB101610F
:100CF00070470904FBE70000014880687047000066
:100D00002400002070B5040025D094F83D00002593
:100D100020B984F83C50204600F070FA242084F872
:100D20003D002068016821F0010101602068016830
:100D300041F4004101602068016821F40041016034
:100D400000F00CFC4D4A6168914201D84C4900E02A
:100D50004C49884201D2012070BD4B492368B0FB49
:100D6000F1F15E6826F03F060E435E6063689342D1
:100D700006D94FF4967359434FF47A73B1FBF3F1EC
:100D80002368491C1E6A26F03F06314319626168D8
:100D9000914210D84900401EB0FBF1F2521CC2F340
:100DA0000B02042A01D2042022E0B0FBF1F0401C27
:100DB000C0F30B001CE0A268F2B301EBC10303EB2C
:100DC0000116431EB3FBF6F35B1C43F480431B0583
:100DD00049D092B301EBC10202EB0111401EB0FBFE
:100DE000F1F0401CC0F30B0040F4804040F40040A0
:100DF0002168CA694CF6FF739A431043C861D4E96D
:100E0000071001432068026822F0C002114301600C
:100E1000D4E9030101432068826848F2FF339A4312
:100E200011438160D4E9050108432168CA6822F0B2
:100E3000FF021043C86001E00EE016E02068016880
:100E400041F0010101602564202084F83D00256304
:100E500084F83E50002070BD01EB4106431EB3FBF9
:100E6000F6F35B1CB3E70120C2E701EB4101401E32
:100E7000B0FBF1F0401CC0F30B00B7E7A086010007
:100E800080841E0000093D0040420F002DE9F84F0C
:100E90000025DDF82890984617468A4604460095B6
:100EA000FFF72AFF064694F83D0020287AD119233F
:100EB000012283492046009601F0A6F90028F5D1C9
:100EC00094F83C0001286DD0012084F83C00206893
:100ED0000168C90703D1016841F001010160206880
:100EE000016821F400610160222084F83D00102097
:100EF00084F83E0025646762A4F82A80608D20850E
:100F00007048E06233464A465146204601F092F866
:100F100000287DD1208DDFF8B081202768B101281D
:100F200014D00228206801681ED041F4806101605D
:100F30002068416980690090B5E020684169816955
:100F40000091016841F400710160ACE02068016823
:100F500021F48061016072B6206841698169009165
:100F6000016841F400710AE041F40061016072B669
:100F70002068416981690091016821F48061016004
:100F800062B690E0032868D801280CD002284B46AE
:100F90004FF000024146204600960FD001F034F990
:100FA000B0BB10E08AE032464946204601F0ABF97A
:100FB00070BB20680069616A08706BE001F024F979
:100FC00030BB72B634E02068016821F480610160B2
:100FD00072B620680069616A0870606A401C6062CD
:100FE000208D401E2085608D401E6085374846F26A
:100FF000A8110068B0FBF1F0C0EBC00000EB80006E
:101000000090401E009008D020684069C04300E076
:1010100029E040070CD50098F3E744F8305F677388
:10102000A573206940F02000206162B625731AE0A4
:101030002068016841F40071016020680069616AFC
:101040000870606A401C6062218D491E2185618D97
:10105000491E618562B621681AE03246494620463B
:1010600001F051F910B10120BDE8F88F2068006946
:10107000616A0870606A401C6062218D491E21858A
:10108000618D491E618521684A69D24352070AD49D
:1010900009690170606A401C6062208D401E2085D5
:1010A000608D401E6085208D00287FF46BAF84F832
:1010B0003D7084F83E5084F83C50D5E70220D3E7D9
:1010C000020010000000FFFF0400010030000020BB
:1010D0002DE9F84F1F4690468A460446DDF82890D1
:1010E000FFF70AFE054694F83D0020287FD119231A
:1010F000012240492046009501F086F8002876D16B
:1011000094F83C00012872D0012084F83C0020684B
:101110000168C90703D1016841F00101016020683D
:10112000016821F400610160212084F83D00102055
:1011300084F83E0000262664C4F824806785608D0C
:1011400020852D48E0622B464A465146204600F055
:10115000E7FF90B9206841698069009036E02A462F
:101160004946204601F002F950B1206C042804D110
:101170002068016841F4007101600120BDE8F88F2A
:10118000606A216800780861606A401C6062618D55
:10119000491E6185218D491E89B2218522685369C6
:1011A000DB435B070BD451B100781061606A401CCF
:1011B0006062608D401E6085208D401E20852A461D
:1011C0004946204600F0FAFF0028CED1208D0028A5
:1011D000C5D154F83D0B016841F400710160202035
:1011E00004F81E09E67766770020C7E7FFE70220CC
:1011F000C4E70000020010000000FFFF10B586B039
:1012000000210091019102910391006810498842E8
:101210001BD1104CA06940F00800A061A06969468C
:1012200000F0080004904FF44060009012200190FC
:10123000032003900848FFF761FCE06940F4800058
:10124000E061E06900F48000049006B010BD000089
:101250000058004000100240000C01400248816824
:10126000027811448160704724000020074810B5BF
:10127000016841F010010160032000F0A7F80F2081
:1012800000F006F800F050F8002010BD00200240E9
:1012900030B505461F4887B0C16941F00401C161FE
:1012A000C06906A900F00400009001A800F036F91A
:1012B0000498B0B100F052F940001749174AB0FB4A
:1012C000F1F11748491E0260416040F2E732002107
:1012D000C0E903218160816100F028FB040003D094
:1012E00015E000F03BF9E8E70D4800F04DFB040085
:1012F0000DD11E2000F03CF8102D07D20022294607
:101300001E2000F043F80748056000E0012407B004
:10131000204630BD0010024040420F00000800404F
:101320008C020020280000200F4808B5816941F098
:1013300001018161816901F001010091C16941F000
:101340008051C161C069002200F0805000900F21DF
:10135000901E00F01BF80548416821F0E06141F063
:101360000071416008BD0000001002400000014013
:10137000002809DB00F01F02012191404009800094
:1013800000F1E020C0F8001170470000F0B40E4BEF
:101390001B680C46C3F30223C3F10705042D00D9D3
:1013A0000425191D072901D2002300E0DB1E0126B8
:1013B00006FA05F1491E214099409E40761E1640CE
:1013C0003143F0BC01F06EBA0CED00E0064900F0CC
:1013D000070208684FF6FF03184040EA0220034A5C
:1013E00010430860704700000CED00E00000FA05B3
:1013F0002DE9F0470F46050061D0434E306800F0FC
:101400000700B84209D2306820F007003843306046
:10141000306800F00700B84251D128683B4C810782
:1014200012D5400703D5606840F4E060606028781A
:10143000000703D5606840F4605060606068A96888
:1014400020F0F000084360602878C00728D0686862
:10145000012810D02168022810D0890700292EDA2F
:10146000616821F0030101436160FFF745FC80469C
:1014700041F288390DE021688903EFE78901EDE742
:10148000FFF73AFCA0EB0801494502D90320BDE86B
:10149000F0876068696800F00C00B0EB810FEFD155
:1014A000306800F00700B8420BD9306820F0070020
:1014B00038433060306800F00700B84201D00120A6
:1014C000E5E72878400705D56068E96820F4E06022
:1014D000084360602878000706D56068296920F411
:1014E000605040EAC100606000F058F86168084A46
:1014F000C1F30311515CC840064908600648006802
:10150000FFF7C6FE0020C2E70020024000100240A4
:10151000E04A000830000020280000200F2202606E
:101520000C4A536803F003034360536803F0F0036D
:101530008360536803F4E063C36052684FF4E06370
:1015400003EAD20202610448006800F00700086064
:101550007047000000100240002002400448054986
:1015600000684968044AC1F30221515CC8407047D1
:101570003000002000100240F04A000804480549ED
:1015800000684968044AC1F3C221515CC8407047F1
:101590003000002000100240F04A000812A185B07F
:1015A0000FC98DE80F0014A0144A00680490516818
:1015B000134801F00C03042B10D0082B0ED1C1F3FB
:1015C0008343C9031DF803000AD5516804AAC1F377
:1015D0004041515C0A4A5043B0FBF1F005B07047FE
:1015E00008494843FAE70000020304050607080912
:1015F0000A0B0C0D0E0F101001020000001002402B
:1016000000127A0000093D002DE9F84F040070D067
:101610002078C04DC00749D06868C0F38100012818
:1016200007D06868C0F38100022809D16868C00348
:1016300006D52868800339D560680028E7D035E0F2
:101640006068B0F5803F0BD010B1B0F5A02F11D07D
:10165000286820F480302860286820F4802002E088
:10166000286840F480302860606890B1FFF744FB40
:1016700006460AE0286840F480202860F0E700BFB2
:10168000FFF73AFB801B642873D828688003F7D5DE
:101690000CE0FFF731FB064605E000BFFFF72CFB2F
:1016A000801B6428F0D828688003F7D420789A4EED
:1016B00080074FF001094FF0000839D5686810F035
:1016C0000C0F07D06868C0F38100022809D1686850
:1016D000C00306D42868800714D52069012808D1E2
:1016E00010E02069B0B1C6F80090FFF705FB07468F
:1016F00005E00AE1FFF700FBC01B0228C4D82868F8
:101700008007F7D52868616920F0F80040EAC10039
:1017100028600DE0C6F80080FFF7EEFA074604E007
:10172000FFF7EAFAC01B022823D828688007F7D4FD
:10173000207800072CD57948A169D9B1C0F800906C
:10174000FFF7DAFA074604E0FFF7D6FAC01B0228D3
:101750000FD8686A8007F7D571484FF4FA510068CE
:10176000B0FBF1F0009000BF0098411E0091FAD24A
:101770000EE080E0C0F80080FFF7BEFA074604E004
:10178000FFF7BAFAC01B022875D8686A8007F7D439
:101790002078400760D5E8690027C00008D4E869D0
:1017A00040F08050E861E869012700F08050009027
:1017B0005C480168C90513D40168834641F480710F
:1017C0000160FFF799FA824606E000BFFFF794FA3E
:1017D000A0EB0A0064284ED8DBF80000C005F5D560
:1017E000E06801280AD008B1052813D0286A20F043
:1017F00001002862286A20F0040002E0286A40F014
:1018000001002862E06841F2883B98B1FFF774FA62
:1018100082460BE0286A40F004002862EEE700BF31
:10182000FFF76AFAA0EB0A0159455AD8286A8007DF
:10183000F6D50CE0FFF760FA824605E0FFF75CFAA8
:10184000A0EB0A0159454CD8286A8007F6D41FB18D
:10185000E86920F08050E861E06988B36968C1F305
:101860008101022944D00228C6F8608004D0FFF725
:1018700043FA044638E034E0FFF73EFA074604E056
:10188000FFF73AFAC01B02282BD828688001F7D44A
:10189000206AB0F5803F05D16868A16820F4003067
:1018A00008436860D4E908010843696821F47411A9
:1018B00008436860C6F86090FFF71EFA044606E029
:1018C00025E000BFFFF718FA001B022809D8286896
:1018D0008001F7D51BE000BFFFF70EFA001B0228BE
:1018E00002D90320BDE8F88F28688001F4D40EE007
:1018F0000128F7D06868226A00F48031914204D14F
:10190000616A00F47010884201D00120EAE70020EB
:10191000E8E700000010024000004242800442421A
:1019200030000020007000407047704710B5040080
:1019300003D094F83D0010B107E0012010BD002055
:1019400084F83C00204600F01EF8022084F83D0098
:10195000211D206800F02CFE012084F8460084F848
:101960003E0084F83F0084F8400084F8410084F889
:10197000420084F8430084F8440084F8450084F869
:101980003D00002010BD704790F83D10012901D0A6
:1019900001207047022180F83D100168CA6842F0BA
:1019A0000102CA6000680B49884208D0B0F1804F3C
:1019B00005D00949884202D00849884204D181688B
:1019C00001F00701062903D0016841F0010101601F
:1019D00000207047002C0140000400400008004037
:1019E000704770B50446006801694FF00005C943AF
:1019F000890715D4C168C943890711D4E91E01615B
:101A000001202077206880698007204602D0FFF7F8
:101A1000E7FF04E000F098F8204600F096F82577FC
:101A200020680169C943490717D4C168C9434907F8
:101A300013D46FF0040101610220207720688069CF
:101A400010F4407F204602D0FFF7CAFF04E000F008
:101A50007BF8204600F079F8257720680169C943B2
:101A6000090716D4C168C943090712D46FF00801E9
:101A70000161042020772068C0698007204602D0D9
:101A8000FFF7AEFF04E000F05FF8204600F05DF8DD
:101A9000257720680169C943C90617D4C168C943BD
:101AA000C90613D46FF01001016108202077206867
:101AB000C06910F4407F204602D0FFF791FF04E098
:101AC00000F042F8204600F040F8257720680169D0
:101AD000C943C90708D1C168C943C90704D1891ED0
:101AE0000161204600F032F820680169C943090607
:101AF00009D4C168C943090605D46FF080010161AA
:101B00002046FFF711FF20680169C943490609D43F
:101B1000C168C943490605D46FF040010161204600
:101B200000F01EF820680169C94389060BD4C1681A
:101B3000C943890607D46FF0200101612046BDE842
:101B40007040FFF7F2BE70BD7047704700680349F0
:101B5000884201D1FFF782BB7047000000080040B7
:101B6000704708B5034690F83E0020281CD181B18B
:101B70007AB193F83C00012816D0012083F83C008C
:101B80001863184600F022FE002803D1196B0129C2
:101B900001D0012008BD19680A684A680092CA6825
:101BA00042F01002CA6008BD022008BD70B50E46A2
:101BB000054600680E490F4C884208D16680A0682F
:101BC00001F092FB80220C492846FFF7CAFF0B491F
:101BD000286888420BD12680606801F085FB284682
:101BE000BDE87040044980228031FFF7BABF70BD64
:101BF0000038014000000020B000002000440040F8
:101C000070470000F8B5026804461068D16853694F
:101C100010F00F0F4FF0000553D003F0010601F450
:101C2000907737435FD0C20705D0CA0503D5226C31
:101C300042F001022264420705D5DA0703D0226C84
:101C400042F002022264820705D5DA0703D0226C33
:101C500042F004022264020707D501F02002324359
:101C600003D0226C42F008022264226C002A34D095
:101C7000800604D5880602D5204600F0EFFC2068D7
:101C80004069216CC0F38010090700D430B32046AE
:101C900000F0CCFC2068416949061BD5416921F060
:101CA00040014161A06BA8B158494163A06BFEF7A8
:101CB000C7FE002811D0A06B416B01B0BDE8F04019
:101CC000084783060FD58B060DD52046BDE8F840A2
:101CD00000F0C4BC2046FFF793FFF8BD2046FFF795
:101CE0008FFF2564F8BD266B2023012E52D1C60636
:101CF00050D5CE064ED51068506800905069400609
:101D00002AD5A16B086840680004000CEAD0A68DB3
:101D10008642E7D9E0858869202818D0D06820F469
:101D20008070D0602068416921F001014161206824
:101D3000416921F04001416184F83E30256320680B
:101D4000C16821F01001C160A06BFEF755FEA08DA7
:101D5000E18D401A81B219E0A08DE18D401A81B267
:101D6000E08D0028BED00029BCD0D06820F490704F
:101D7000D0602068426922F00102426184F83E305E
:101D800025632068C26822F01002C2602046FFF777
:101D90000DFFF8BD05062BD50D0629D594F83D009D
:101DA0002128F6D1A068B0F5805F01D12069B0B1DB
:101DB000206A411C2162216800784860E08C401E46
:101DC0000004000CE084E4D12068C16821F08001A7
:101DD000C1602068C16841F04001C160F8BD206A5F
:101DE0000088C0F308005060206A801C2062E5E78C
:101DF0004006F3D54806F1D5D168204621F04001D0
:101E0000D16084F83D3000F0FCF8F8BD1D260008D4
:101E100070B5040004D094F83D00002510B106E030
:101E2000012070BD84F83C50204600F023F82420A7
:101E300084F83D002068C16821F40051C16020464B
:101E400000F068FC2068016921F49041016120687C
:101E5000416921F02A0141612068C16841F40051C3
:101E6000C1602564202084F83D0084F83E000020F5
:101E700070BD000070B586B00024009401940294F7
:101E800003942E4E03682E49022003222D4DB342A7
:101E900026D18B6943F480438B618B6903F48043C3
:101EA00004938B6943F004038B618969039201F009
:101EB000040104910102CDE9001069462846FEF7AD
:101EC0001DFE2815CDE90004694628460294FEF758
:101ED00015FE002205212520FFF758FA252028E0CD
:101EE000194EB34227D1CB6943F40033CB61CB69A0
:101EF00003F4003304938B6943F004038B61896915
:101F0000039201F0040104910421CDE90010694617
:101F10002846FEF7F3FD0820CDE90004694628466F
:101F20000294FEF7EBFD002205212620FFF72EFA92
:101F30002620FFF71DFA06B070BD000000380140F2
:101F400000100240000801400044004070470000BB
:101F50002DE9F843044690F83D001F4616460D460D
:101F600020284CD1C5B1BEB194F83C00012846D020
:101F7000012084F83C004FF00008C4F84080212084
:101F800084F83D00FEF7B8FEA6848146E684A0688A
:101F9000B0F5805F03D004E00120BDE8F88320693C
:101FA00028B12E465FF0000584F83C800EE0002644
:101FB000FAE78021204600F024FCA0B9AEB116F863
:101FC000010B21684860E08C401EE084E08C4B46A9
:101FD0004FF0000200970028EBD14FF0400120465F
:101FE00000F00FFC30B10320D7E735F8020BC0F347
:101FF0000800E6E7202084F83D000020CDE702201D
:10200000CBE77047FEE701684A69D24352050FD417
:102010006FF480624A61002140F8301F2022427331
:102020008173026942F0040202610173012070476A
:10203000002070472DE9F84F0446C06A1E469346BB
:102040000D4621680A6842F480620A60082807D0B9
:10205000012805D010F5803F02D0206B112804D153
:102060002068016841F4807101604FF001195B46FE
:10207000002249462046009600F0C6F84FF400784A
:1020800040B120680068C00501D5C4F84080032035
:10209000BDE8F88F2069DFF884A0B0F5804F0FD03D
:1020A0000620216800EAD51747F0F00008613346A2
:1020B0005A460AF10601204600F0DAF858BB03E060
:1020C000E8B240F001001CE02168E8B20861334644
:1020D0005A465146204600F0CBF8E0B920684169E5
:1020E00081690091016841F4807101605B460022C2
:1020F00049462046009600F087F80028C1D147F0F5
:10210000F1002168086133465A465146204600F0E6
:10211000AFF80028BCD00120BAE70000020001009F
:10212000F8B50446C06A1E460D461746082807D073
:10213000012805D010F5803F02D0206B122804D171
:102140002068016841F480710160134600224FF05D
:1021500001112046009600F057F840B12068006851
:10216000C00502D54FF4007020640320F8BD20693B
:10217000B0F5804F0ED00620216800EAD51040F05F
:10218000F000086133463A460B49204600F070F8EB
:1021900078B902E005F0FE0000E0E8B221680861CD
:1021A000054933463A46891F204600F061F8002869
:1021B000DCD00120F8BD00000800010070B5164613
:1021C0000D4604460DE02046FFF71DFF08B1012033
:1021D00070BD681C05D0FEF78FFD801BA84207D894
:1021E00035B120684069C0434007ECD4002070BD81
:1021F000002044F8300F20216173A073216941F061
:10220000200121612073E2E72DE9F0471E46904648
:102210000D460446C1F30747DDF8209008E0701C26
:1022200006D0FEF769FDA0EB0900B0420FD876B1E9
:102230002068012F18D0806925EA00000004000CF6
:1022400014D000214145EAD00020BDE8F0870020ED
:1022500044F8300F20216173A073216941F02001FF
:10226000216120730120F0E74069E5E70121E9E7FA
:102270002DE9F0479A4691460E46044600254FF058
:102280002008C1F3074725E020684069C0434005A6
:1022900014D42068016841F40071016021686FF472
:1022A00080604861256384F83D8084F83E50206C4E
:1022B00040F00400206484F83C501FE0B9F1FF3F77
:1022C00008D0FEF719FDA0EB0A0149450CD8B9F179
:1022D000000F09D02068012F13D0806926EA000082
:1022E0000004000C0BD0CFE744F8305F84F80D8079
:1022F000A573206940F02000206125730120BDE80E
:10230000F0874069EAE72DE9F041002590460E4646
:102310000446202717E04069C043C0060CD454F897
:10232000301B6FF01000486144F810596777A577AB
:10233000206A2062257717E0FEF7DEFCA0EB08009C
:10234000B04208D83EB120684169C9434906E2D489
:102350000020BDE8F08144F8305F6773A573206901
:1023600040F02000206125730120F2E770B5164689
:102370000D4604460DE02046FFF745FE08B101205A
:1023800070BD681C05D0FEF7B7FC801BA84207D8BB
:1023900035B120684069C0430006ECD4002070BD10
:1023A000002044F8300F20216173A073216941F0AF
:1023B000200121612073E2E72DE9F04786B0002477
:1023C0002D480094019402940394816941F0100116
:1023D0008161816901F010010491816941F020015E
:1023E0008161816901F020010491816941F004015A
:1023F0008161816901F004010491816941F0080162
:1024000081618069DFF8748000F008004FF4604556
:102410000490002229464046FEF768FCDFF86090F1
:1024200048F20207002239464846FEF75FFCDFF813
:1024300054A0002238215046FEF758FC0095022691
:1024400001250396CDE9015469464046FEF756FB47
:1024500000970396CDE9015469464846FEF74EFBC6
:102460003820CDE90005CDE9024669465046FEF721
:1024700045FB06B0BDE8F0870010024000100140A7
:1024800000080140000C0140FEE7FEE71CB54FF4D8
:102490007A77384600F0D2FE1048FEF781FA0146FE
:1024A0000FA000F0EFF9144E134A0C48121D111F33
:1024B000FEF72EFA7068FDF752FF04460D463068AD
:1024C000FDF74DFF02460B460CA0CDE9004500F09C
:1024D000D9F9384600F0B2FEE6E70000B00100206E
:1024E0005B4C4F475F4D53475D3A20737461743ABC
:1024F0002025640D0A000000140000205B4C4F47AB
:102500005F4D53475D3A20743A2025662C20683A87
:102510002025660D0A00000010B5502080F31188B8
:10252000BFF34F8FBFF36F8F02F022F918B1044948
:102530004FF080500860002080F3118810BD00002B
:1025400004ED00E030B58FB028216846FDF761FE4C
:1025500014210AA8FDF75DFE01210804CDE9001051
:102560000024029402250491CDE907504FF4E010B5
:1025700009906846FFF748F808B172B6FEE70F20E9
:10258000CDE90A054FF48060CDE90C4002210AA88C
:102590000E94FEF72DFF002801D072B6FEE70FB0B3
:1025A00030BD70470148FFF71CBA00008C020020C4
:1025B000F0B50268164B174C174D4FF08047984204
:1025C00005D0B84203D0A04201D0A84203D122F0E6
:1025D00070064A683243984205D0B84203D0A04200
:1025E00001D0A84203D122F44074CA6822434C6946
:1025F00022F08002224302608A68C2620A68826214
:10260000984201D10969016301214161F0BD0000D7
:10261000002C0140000400400008004010B5406A52
:102620000021C185C184FFF7EBFA10BD0168CA68BB
:1026300022F49072CA6001684A6922F001024A617C
:10264000016B012904D10168CA6822F01002CA6036
:10265000202180F83E1000210163704708B590F8F2
:102660003E10222901D0022008BD82684FF4805319
:102670009A4201D1016921B1816A9A421BD04AB1C3
:102680000AE00268816A5268C2F308020A80816A1D
:10269000891C08E0026972B10268526802F07F0288
:1026A0000A70816A491C8162C18D491E0904090CA6
:1026B000C18503D019E002685268F1E70168CA6871
:1026C00022F02002CA600168CA6822F48072CA60DF
:1026D00001684A6922F001024A61202180F83E1017
:1026E000016B012903D0FFF731FC002008BD002158
:1026F00001630168CA6822F01002CA6001680A68B2
:10270000D20602D50A6849680091818DFFF74EFA1A
:10271000EBE7000070B5044600680169E26821F447
:102720004051114301612169A06808436169084370
:102730002168CA6841F20C639A430243CA60206868
:102740004169A26921F44071114341611E49206829
:10275000884202D1FEF712FF01E0FEF7FFFE00EB18
:10276000C00101EB0012606864218000B2FBF0F34D
:10277000B3FBF1F36FF018067343B2FBF0F5B2FB55
:10278000F0F605EB8305322303EB0515B5FBF1F5F8
:10279000B6FBF1F605F0F00505EB0615B2FBF0F619
:1027A000B2FBF0F0B0FBF1F06FF01802504306EB13
:1027B000800003EB0010B0FBF1F0216800F00F0087
:1027C0002844886070BD0000003801408162828525
:1027D000C28500210164222280F83E2080F83C104E
:1027E0000168CA6842F48072CA6001684A6942F0AE
:1027F00001024A610068C16841F02001C160002007
:1028000070472DE9F041984617460E460446069D4E
:102810001DE0681C1BD02DB1FEF76EFAA0EB08007E
:10282000A84214D92068C16821F4D071C160206821
:10283000416921F001014161202084F83D0084F8C4
:102840003E00002084F83C000320BDE8F0812068B1
:10285000006836EA000004D00020B842D9D0002039
:10286000F3E70120F9E700000148FFF7CBB90000CA
:10287000040200200148FFF7C5B90000480200200B
:10288000FEE700000FB4054B10B503A9044A0298F7
:1028900000F0EAF810BC5DF814FB0000713100088C
:1028A000AC0000200907090E002804DB00F1E0203D
:1028B00080F80014704700F00F0000F1E02080F86D
:1028C000141D704702E008C8121F08C1002AFAD17F
:1028D00070477047002001E001C1121F002AFBD1A0
:1028E000704700002DE9FF5F82B00021DDE9043070
:1028F000020DDDF840B0034318D044F61050A2F2A8
:10290000FF3242431514119801281FD0A5EB0B008C
:10291000401C5FEA000A4FF000064E4FDFF8389186
:10292000B046504615D5CAF1000413E011980124B1
:102930004AA3012801D16FEA0B010298119AC0E95C
:102940000031C0E9024206B0BDE8F09FCBF10000C3
:10295000DFE704460021404A491842EB0450CDE924
:10296000001012E0E00707D032463B464046494699
:10297000FDF72DFE8046894632463B4610461946F5
:10298000FDF725FE06460F466410002CEAD1DDE96E
:102990000401DDE90023BAF1000F06DAFDF717FEA6
:1029A00042464B46FDF713FE05E0FDF782FE424628
:1029B0004B46FDF77EFE04460E460022284BFDF7EF
:1029C000FFFE03D84FF0FF30014607E00022254B01
:1029D00020463146FDF754FDFDF7DAFE102409E0EC
:1029E000002C0ADB0A220023FDF7E2FC039B3032B5
:1029F0001A55641E50EA0102F2D1641C039AC4F114
:102A000011031444119A012A03D0012208430DD165
:102A10000AE0084304D000204FF0110B119072E738
:102A2000A3EB0B056D1E0DE05B4504DD4FF00002CE
:102A300005F1010504E003DA4FF00002A5F10105FC
:102A4000002AECD002981199C0E90231C0E9004592
:102A500079E70000000014400000F03F3000000063
:102A60000000F0430000E03F2DE9FF4F95B09A468B
:102A7000884606460025EEE1252877D10024274622
:102A8000F94A0121039400E0044316F8013F203B7A
:102A900001FA03F01042F7D130782A2811D06FF0F4
:102AA0002F033078A0F13002092A16D8039A44F097
:102AB000020402EB820203EB42021044761C0390F4
:102AC000EFE758F8042B0392002A03DA504244F44B
:102AD0000054039044F00204761C30782E2816D15E
:102AE00016F8010F44F004042A280DD06FF02F02CD
:102AF0003078A0F13003092B09D807EB870302EBEC
:102B00004303C718761CF3E758F8047B761C30782B
:102B10006C280FD006DC4C2817D068280DD06A2806
:102B200014D104E0742810D07A280FD10DE044F4B9
:102B300000140AE044F4801401E044F44014727874
:102B4000824202D104F58014761C761C3078662807
:102B50000BD013DC582877D009DC002875D0452825
:102B6000F6D04628F4D047281AD193E118E063281C
:102B700035D0642879D0652812D18BE1702873D0C4
:102B800008DC6728F1D069286FD06E280DD06F2837
:102B900006D1ACE073282CD0752874D0782853D097
:102BA0005246179990476D1C54E1C4F30250022815
:102BB00009D003280DD0D8F8001004280DD00D60DE
:102BC00008F1040846E1D8F80010EA17C1E90052FC
:102BD000F6E7D8F800100D80F2E70D70F0E718F86E
:102BE000041B8DF8001000208DF80100EB46012039
:102BF00003E058F804BB4FF0FF3061074FF00001CD
:102C000002D40DE009F101018946B9420FDA81458C
:102C1000F8DB1BF809100029F4D108E009F10101E3
:102C200089468142FADB1BF809100029F6D1039886
:102C30005346A0EB090721463846179A00F080FA60
:102C4000284400EB090507E044E008E10DE01BF82B
:102C5000010B524617999047B9F10109F7D2534633
:102C600021463846179AF2E039E00A21C4F30252AD
:102C70004FF0000B0091022A06D058F8040BC11740
:102C8000032A09D00AE023E008F1070020F0070238
:102C9000F2E80201904605E000B2C117042A01D112
:102CA00040B2C117002906DA0A460021404261EB12
:102CB00002012D2202E0220504D52B228DF80420EA
:102CC000012203E0E20701D02022F7E7914657E016
:102CD0000A2100E010214FF0000B00910BE01021C1
:102CE0004FF0000B44F004040827009103E0082093
:102CF0004FF0000B0090C4F30252022A05D058F89E
:102D0000040B0021032A08D008E008F1070020F096
:102D10000702F2E80201904603E080B2042A00D1E3
:102D2000C0B24FF0000922072AD53278702A07D0A6
:102D3000DDF800C08CF0100C5CEA0B0C05D00EE046
:102D400040228DF80420012208E050EA010306D059
:102D500030238DF804308DF8052002229146009B27
:102D600083F0080353EA0B030AD150EA010201D1B0
:102D7000620705D530228DF804204FF001097F1E2F
:102D80003278582A04D039A20C920CAA02920BE095
:102D90003BA2F9E75B46009AFDF70AFB0C9B9B5CA4
:102DA000029A521E0292137050EA0102F2D1029866
:102DB00004A9081A00F1200B600702D524F480341E
:102DC00000E001275F4502DDA7EB0B0000E00020DB
:102DD00000EB0B01009003984944401A0390E00374
:102DE00006D453462146179A039800F0A9F90544E2
:102DF000002706E001A85246C05D179990476D1C58
:102E00007F1C4F45F6DBE0030CD553462146179A4D
:102E1000039800F095F9054404E0302052461799D4
:102E200090476D1C0099481E00900029F5DC08E0D1
:102E30000298029952460078491C029117999047CE
:102E40006D1CBBF10001ABF1010BF1DC5BE100F0AB
:102E500065F90544761C307800287FF40DAE19B072
:102E60002846BDE8F08F00000928010030313233D8
:102E700034353637383961626364656600000000B6
:102E800030313233343536373839414243444546A0
:102E900000000000600700D4062708F1070020F0BA
:102EA0000700F0E80223804603F0004C5FEA0C00C4
:102EB00001D097A009E0200501D596A005E0E00724
:102EC00001D095A001E0AFF24C001390307823F0D0
:102ED000004365280CD006DC452809D046281DD0C3
:102EE00047287FD13BE0662818D067287AD136E0A2
:102EF0000021112F01DB112000E0781CCDE9000139
:102F000004A90CA8FFF7EEFCDDE90D010C9A4FF0C7
:102F1000000B07F10109109200914EE04FF00040C4
:102F20000097CDE9011004A90CA8FFF7DBFCDDE94F
:102F30000D020C9B0F994FF0000B914610930092DD
:102F400011B9791C00EB0109B7EB090003D4C0F1FA
:102F5000FF3B07F10109A9EB0700019042E0012FB7
:102F600000DA01270021112F01DD112000E0384691
:102F7000CDE9000104A90CA8FFF7B4FCDDE90D01BF
:102F80000C9A00914FF0000BB946109221070FD414
:102F9000009A4A4503DA914601E0A9F10109B9F125
:102FA000010F05DD109AA9F10101515C3029F4D01F
:102FB000B84202DA10F1040F03DA0121CDE9011061
:102FC00010E0002803DC8344A9EB000102E0411C6F
:102FD000494500DD8946A0EB0B00401C01904FF0F5
:102FE00000400290200705D40198484502DB4FF0CD
:102FF000FF30019000208DF84B0002980DF14B0737
:10300000B0F1004F25D002200C902B200D9002989B
:1030100000280CDA404202902D200D9007E00A2192
:103020000298FDF7AFF93031029007F8011D0C99B5
:10303000481E0C900029F2DC02980028EFD1791E7E
:103040000D980870307800F0200040F0450007F837
:10305000020D11A8C01BC01D02901398007800B18A
:10306000012000EB0901019801EBE0710298014495
:103070000398401A401E0390E00306D453462146AD
:10308000179A039800F05CF805441398007818B17B
:103090005246179990476D1CE00323D553462146AD
:1030A000179A039800F04CF805441BE0BBF1000FA1
:1030B00007DB0098584504DD1098179910F80B00AD
:1030C00001E0179930205246904701980BF1010B0F
:1030D000401E05F10105019004D12E20524617999A
:1030E00090476D1CB9F10001A9F10109DEDC05E092
:1030F00017F8010B5246179990476D1C0299481E0C
:1031000002900029F4DC53462146179A03989EE664
:103110002D0000002B000000200000002DE9F041F0
:10312000044600251E461746880404D405E03946A7
:103130002020B0476D1C641EF9D52846BDE8F081FB
:103140002DE9F041044600251E469046C80301D5EE
:10315000302700E02027880404D505E041463846A2
:10316000B0476D1C641EF9D52846BDE8F08100000B
:1031700013B54FF6FF73012269460248FEF7E8FED9
:1031800000981CBD04020020FEF770F8FFF7DAF982
:10319000FFF712F9224821494FF4E136002401607B
:1031A000C0E901640C25C460C0E904458461C461C0
:1031B000FEF72EFE08B172B6FEE7194819494430F1
:1031C0000160C0E90164C460C0E904458461C46170
:1031D000FEF71EFE08B172B6FEE7114812495438D8
:1031E00001601249C0E901144FF48041C0E9034174
:1031F00044618461C4610462FDF784FD08B172B664
:10320000FEE700F035F80A4A00210A4800F0A4F869
:103210000949886000F048F8FEE7000000380140E6
:10322000040200200044004000580040A086010035
:10323000BC4A00088D2400081400002010B5EFF3EC
:10324000058149B9EFF3108131B9084909680229AC
:1032500005D1EFF3118111B16FF0050403E00024F3
:1032600008B100F035FE204610BD000084000020AB
:10327000EFF3058058B9EFF3108040B909490868A9
:10328000022801D030B109E0EFF3118030B16FF0C6
:103290000500704701200860002070474FF0FF30A4
:1032A000704700008400002010B5EFF3058060B97E
:1032B000EFF3108048B90B490868022802D00128B2
:1032C00006D00BE0EFF3118040B16FF0050010BDA8
:1032D0000220086000F064FE002010BD4FF0FF30B7
:1032E00010BD00008400002038B50024E51E002831
:1032F00004D000BFEFF3058169B902E06FF0030469
:1033000023E0EFF3108131B911490968022914D182
:10331000EFF3118189B100210091694601F098F81D
:10332000012811D1009880B10A494FF080500860FF
:10333000BFF34F8FBFF36F8F07E000231A46194684
:1033400000F078FF012800D02C46204638BD000050
:103350008400002004ED00E0F0B585B04FEA0103E1
:103360004FF00004EFF305810394A1BBEFF310814C
:1033700089BB21490968022902D1EFF3118151BBB0
:1033800048B3802618218DF8104004AD42B3176869
:1033900007B13D4697691FB139467F1E382F02D2CB
:1033A0001779FF0702D0002005B0F0BD576907B1BB
:1033B000BE08D2F808C0BCF1000F0DD0D4685C2C58
:1033C00018D312693AB137B18DE806103246294652
:1033D00001F08FF903900DE0D7685FB912694AB91F
:1033E00003AACDE90012B2B2294601F055F901282D
:1033F00000D003940398D7E7840000202DE9F04122
:10340000134C0F46054666692068001D00F018FC45
:10341000681C07D137B12168BDE8F0410D48091D8E
:1034200000F076BC20683544B5424560216805D27D
:10343000A068BDE8F041091D00F052BC6068091D9C
:1034400000F04EFC206B854200D22563BDE8F08180
:1034500034000020C40700202DE9F041054600F0AB
:1034600063FC2D4C2069401C206120682B4F10B15B
:10347000E06930B32BE025602069012827D10026C0
:1034800006EB860007EB800000F01CFC761C382E53
:10349000F6D3234800F016FC2148143000F012FC4B
:1034A0001F48283000F00EFC1D483C3000F00AFC9C
:1034B0001B48503000F006FC194860601430A060D2
:1034C00005E02068E96AC06A884200D82560E06AA1
:1034D000401CE0626864E86AA169884200D9A06182
:1034E00000EB800007EB8000291D00F011FC00F0CC
:1034F0003BFCE06900280CD02068E96AC06A884279
:1035000007D208494FF080500860BFF34F8FBFF3D8
:103510006F8FBDE8F081000034000020140300200C
:103520007407002004ED00E038B500F0FDFB104CFE
:10353000A068C8B90F4800F0C5FB0E48143000F071
:10354000C1FB0C482060143060600A4B0020283317
:10355000009003F1500210210A2000F0F3FDA0605A
:1035600010B105A100F07EFCBDE8384000F0FCBBC6
:1035700070000020D8070020546D72510000000038
:1035800030B4026C0B46002A0BD0C1681144C160F4
:103590004468A14201D30168C16030BC1846FCF701
:1035A0001FBE30BC70472DE9F041856B17460446BD
:1035B0000026026C82B1C7B1E068FCF711FEE16839
:1035C000206C091AE1602268914202D26168081AEF
:1035D000E060022F16D017E02068A8B9606801F0FB
:1035E0002FF90646002060600EE0A068FCF7F8FDA9
:1035F000216CA0680844A0606168884204D32068F8
:10360000A06001E005B16D1E6D1CA5633046BDE8EC
:10361000F08110B5044690F8590058B101280CD03B
:1036200002280FD0502080F31188BFF34F8FBFF3D3
:103630006F8FFEE7206B00F0ABFB2046BDE810402B
:1036400000F0A6BB10BD000010484FF440614207D7
:1036500006D0C01D0D4920F00700411AC1F5406198
:103660000B4A00230144C2E900030839103A21F053
:10367000070111604B600B600B1AC0E900139360E7
:103680004FF000405360D06070470000A80F00204A
:1036900098000020154E164CA6F29C474FF080581B
:1036A000DFF8509012E000BF00F03EFBF068C56804
:1036B000281D00F0C5FA2069401E2061E068401E08
:1036C000E06000F051FB2846FFF7A3FFE068002808
:1036D000EAD13868012805D9C9F80080BFF34F8FB7
:1036E000BFF36F8F00F0D6FAF0E70000B0070020BC
:1036F0003400002004ED00E070B51D46049C51B17B
:10370000C4F80020C4E90F010121204600F04EFD5D
:1037100084F84C5070BD2460F4E72DE9F0470E4664
:10372000DDE909841746824691009946089DA52245
:10373000206BFCF767FD6FF00301206B01EB870145
:10374000084420F00707780707D0502080F311883D
:10375000BFF34F8FBFF36F8FFEE72218315C82F803
:103760003410315C11B1401C1028F6D3002684F8C7
:103770004360382D00D33725E562C4E91356201D78
:1037800000F0ABFA04F1180000F0A7FA2461C5F1CB
:1037900038006462A061666584F858604A46514604
:1037A000384600F03BFA2060B8F1000F01D0C8F8AD
:1037B0000040BDE8F087000030B5114900E0114637
:1037C0000A688242FBD34B685C18844203D140688C
:1037D00018444860084643681C18944209D1084CB4
:1037E000103C2468A24209D052681A4442600A6818
:1037F00012680260814200D0086030BD0460F9E7C1
:103800009800002070B5002441600B4D006191428A
:1038100006D8D11A8269914206D2011D686807E074
:103820009A4203D2994201D3012403E0011D286882
:1038300000F056FA204670BD7000002010B5044616
:1038400000F072FAA06B28B15FF0000400F08CFA6F
:10385000204610BD0124F9E730B589B0304D55E060
:103860000498002806DADDE90601059A90470498D5
:1038700000284BDB069C606910B1201D00F0E0F9C8
:1038800002A800F0B9F8024604980A283ED2DFE800
:1038900000F00505053D263705053D260598A1697B
:1038A000034601442046FFF7ADFF00B3616A20469E
:1038B0008847E069012829D1002000900598A16976
:1038C000002342181946204601F0C4F878B9502068
:1038D00080F31188BFF34F8FBFF36F8FFEE705981A
:1038E000A06128B1811813462046FFF78BFF0DE039
:1038F000502080F31188BFF34F8FBFF36F8FFEE727
:1039000094F82C0010B9204600F042FA002204A9D5
:10391000A86800F0EBFD0028A2D109B030BD00007E
:10392000700000202DE9FC410F46054600F07CFBAD
:1039300001A800F061F80446019818B100F0F8FF02
:10394000BDE8FC81224EAFB170680068A8B30027C3
:10395000291B3A46B06800F099FA00F0E9FF002808
:10396000EED11C494FF080500860BFF34F8FBFF37A
:103970006F8FE5E7A542EBD800F0DAFF3068274605
:10398000C068C468201D00F05BF9E069012810D10F
:10399000A0692B4641193A462046FFF733FF40B154
:1039A00000200346014600902A46204601F052F8C6
:1039B00020B1616A20468847C2E707E0502080F3C3
:1039C0001188BFF34F8FBFF36F8FFEE70127BFE76B
:1039D0007000002004ED00E006484168096829B144
:1039E0004168C968C9684968016370474FF0FF3191
:1039F000FAE700003400002070B5054600F0B2FE82
:103A0000064E04463069844203D200F009F80120D2
:103A100000E0002028602046346170BD7000002066
:103A2000F8B5194D1FE0C068C4680668201D00F095
:103A300007F9616A20468847E069012813D1A06927
:103A40003044B04206D924616060211D286800F02E
:103A500047F908E000200346014600903246204620
:103A600000F0F8FF38B1286801680029DBD16968E7
:103A7000C5E90010F8BD502080F31188BFF34F8FC7
:103A8000BFF36F8FFEE70000700000200848406819
:103A9000401C4FF0500080F3118804D0BFF34F8FCB
:103AA000BFF36F8FFEE7BFF34F8FBFF36F8FFEE75C
:103AB000A0000020074C2068016841B1C0680021C7
:103AC000D0F80000FFF72EFFFFF7C6FEF3E7012155
:103AD0000020F7E7700000202DE9F041044600F0D7
:103AE00023F994F9455004F1240609E0606A48B1CD
:103AF000304600F0E5FE08B100F018FA6D1E6DB218
:103B0000002DF3DC4FF0FF3684F8456000F02CF90F
:103B100000F00AF994F9445004F1100709E0206913
:103B200048B1384600F0CCFE08B100F0FFF96D1E38
:103B30006DB2002DF3DC84F84460BDE8F04100F084
:103B400013B900002DE9F0410546002700F06CFA9A
:103B5000314E306808B9FFF777FDF06805424BD168
:103B6000C5B3083568070ED005F00700C0F108009E
:103B70000544680707D0502080F31188BFF34F8FAA
:103B8000BFF36F8FFEE72DB37068854234D82248AB
:103B9000103001460C6801E020460C466168A942DD
:103BA00002D221680029F7D131688C4224D00768FD
:103BB0002168016060680837411B10290FD960191E
:103BC000420708D0502080F31188BFF34F8FBFF316
:103BD0006F8FFEE710E041606560FFF7EDFD616803
:103BE0007068401A7060B268904200D2B060F068AD
:103BF00001430020C4E9000100F09AFE780707D0D5
:103C0000502080F31188BFF34F8FBFF36F8FFEE713
:103C10003846BDE8F08100008800002010B5031F81
:103C20004FF080741C601B1F21F001011960191FE7
:103C3000024B0B60143940380A6010BD8D3A000801
:103C4000D0E9013201699A60D0E901235A604A68DB
:103C5000824201D182684A60002202610868401EE7
:103C60000860086870470000034B036003F15C00C4
:103C70000860802010607047F0080020044B03604B
:103C800003F15C0008604FF4807010607047000022
:103C90004C0B00207047000008490868401C086071
:103CA0004FF47A7190FBF1F201FB1200002803D16E
:103CB00002210348FDF712B87047000020000020E1
:103CC0000008014000F108014FF0FF32C0E9011285
:103CD000C1600161002101607047002101617047EE
:103CE00030B50B685A1C02D000F1080202E00269EC
:103CF00004E02246546825689D42FAD953684B6017
:103D000099608A60516008610168491C016030BD9A
:103D100042684A6093688B6093685960916008615B
:103D20000168491C01607047502080F31188BFF37F
:103D30004F8FBFF36F8F0A494868401C48600128C5
:103D40000CD10848006810F0FF0F07D0502080F316
:103D50001188BFF34F8FBFF36F8FFEE770470000EE
:103D6000A000002004ED00E00849486828B1401E8A
:103D7000486001D180F311887047502080F311888A
:103D8000BFF34F8FBFF36F8FFEE70000A00000204E
:103D900070B5002827D0144DA0F108046168E868C8
:103DA000014207D1502080F31188BFF34F8FBFF33A
:103DB0006F8FFEE722683AB1502080F31188BFF37D
:103DC0004F8FBFF36F8FFEE78143616000F02CF9E6
:103DD00060686968084468602046FFF7EDFCBDE84C
:103DE000704000F0A5BD70BD880000204FF0E020BD
:103DF00000210161816105494FF47A720968B1FBC4
:103E0000F2F1491E41610721016170473000002035
:103E100010B5FCF7BFF9114910280ED300F1E020CE
:103E200090F8F0030A78904207D2502080F311886E
:103E3000BFF34F8FBFF36F8FFEE7094800688968B3
:103E400000F4E060884207D9502080F31188BFF366
:103E50004F8FBFF36F8FFEE710BD0000A000002062
:103E60000CED00E010B5084B002200BF53F83240C3
:103E70001CB1521C082AF9D310BD43F8321003EBD1
:103E8000C201486010BD0000D402002070B5154684
:103E90000E460446FFF748FF94F944100020491CE1
:103EA00001D184F8440094F94510491C01D184F8EB
:103EB0004500FFF759FFA06B28B92A46314604F1A7
:103EC000240000F051F82046BDE87040FFF704BE22
:103ED00010B5020014D00F48806B38B1502080F329
:103EE0001188BFF34F8FBFF36F8FFEE700F09CF890
:103EF00000211046FFF782FA00F01AFD002807D1D2
:103F000005494FF080500860BFF34F8FBFF36F8FAC
:103F100010BD00003400002004ED00E002498A6A70
:103F20000260496941607047340000200149012066
:103F3000486270473400002010B50C4650B1094962
:103F400009681831FFF7CCFE2046BDE8104001217A
:103F5000FFF754BA502080F31188BFF34F8FBFF39F
:103F60006F8FFEE73400002070B514460D4668B12F
:103F70000A4909681831FFF7CBFE0CB14FF0FF3545
:103F800021462846BDE87040FFF738BA502080F33C
:103F90001188BFF34F8FBFF36F8FFEE7340000200F
:103FA00030B587B00024039405AA04A903A804949B
:103FB000FFF75AFEDDE903010094CDE9011000236B
:103FC00015A11748059A00F094FB164D0028686368
:103FD0001FD000F00FFD012809D0401C19D150203E
:103FE00080F31188BFF34F8FBFF36F8FFEE7502030
:103FF00080F31188BFF34F8FBFF36F8F4FF0FF3007
:1040000028630120E8616C6107B0BDE8304000F032
:1040100045B807B030BD000049444C4500000000E1
:1040200095360008340000200248816B491C8163EA
:104030007047000034000020164810B5816B11B1A4
:104040000121416210BD002141628169124A01E0F3
:10405000B9B1491E01EB810352F82330002BF7D090
:1040600001EB810302EB830202F1080453685B68F1
:104070005360A34201D15B685360DA6802608161DA
:1040800010BD502080F31188BFF34F8FBFF36F8FA7
:10409000FEE7000034000020140300201CB5264970
:1040A00008780190FF20087008788DF800009DF8CE
:1040B00000009DF8002000F0F000904207D0502052
:1040C00080F31188BFF34F8FBFF36F8FFEE79DF82A
:1040D00000001A4B00F0500018700720986005E0AF
:1040E0009DF8002052008DF80020401E9DF8002011
:1040F0001206F5D49860032807D0502080F3118869
:10410000BFF34F8FBFF36F8FFEE74FF4407098609F
:10411000019808700A48016841F470010160016863
:1041200041F070410160FFF761FE00205860FBF72D
:10413000FBFF00201CBD000000E400E0A000002008
:1041400020ED00E038B5049D18B153B1CAB181B17A
:1041500020E0502080F31188BFF34F8FBFF36F8FA3
:10416000FEE7502080F31188BFF34F8FBFF36F8FAE
:10417000FEE7502080F31188BFF34F8FBFF36F8F9E
:10418000FEE739B1502080F31188BFF34F8FBFF3A2
:104190006F8FFEE750241C46012384F846302B46DF
:1041A0000094FFF7A9FA204638BD000070B50D460F
:1041B000040025D0FFF7B8FDD4E90F20216802FBE9
:1041C000001161600021A1632168A1600A46D4E961
:1041D0000F01401E00FB0121E16021464FF0FF303E
:1041E00001F8440F487004F110008DB1FFF76AFD2B
:1041F00004F12400FFF766FDFFF7B6FD012070BD56
:10420000502080F31188BFF34F8FBFF36F8FFEE70D
:1042100021690029F0D000F053FB0028ECD00449BC
:104220004FF080500860BFF34F8FBFF36F8FE3E70D
:1042300004ED00E02DE9FF4782B01D468A464FF0AD
:104240000008040003D0BAF1000F08D011E050209C
:1042500080F31188BFF34F8FBFF36F8FFEE7206CA1
:1042600038B1502080F31188BFF34F8FBFF36F8FA9
:10427000FEE7022D0AD1E06B012807D0502080F321
:104280001188BFF34F8FBFF36F8FFEE700F05CFA2A
:104290003F4F4FF000094FF0805648B9049838B1AD
:1042A000502080F31188BFF34F8FBFF36F8FFEE76D
:1042B000FFF73AFDA06BE16B884207D3022D05D0D2
:1042C0000498D0B1B8F1000F1AD01EE02A4651462A
:1042D0002046FFF768F9616A19B104F1240000F083
:1042E000EFFA20B13E60BFF34F8FBFF36F8FFFF740
:1042F0003BFD012006B0BDE8F087FFF735FD22E069
:104300006846FFF70BFE4FF00108FFF72DFDFFF7A2
:104310008BFEFFF709FD94F94400401C01D184F89D
:10432000449094F94500401C01D184F84590FFF772
:104330001BFD04A9684600F075F930B12046FFF76F
:10434000CBFB00F0F5FA0020D4E7FFF7EDFCA06B03
:10435000E16B884213D1FFF707FD04F110000499C7
:10436000FFF7EAFD2046FFF7B7FB00F0E1FA00286F
:104370009ED13E60BFF34F8FBFF36F8F98E7FFF77B
:10438000F3FC2046FFF7A8FB00F0D2FA90E700000C
:1043900004ED00E02DE9F0471F46904689460400F1
:1043A00003D0B9F1000F08D011E0502080F311883C
:1043B000BFF34F8FBFF36F8FFEE7206C38B15020F3
:1043C00080F31188BFF34F8FBFF36F8FFEE7022F8B
:1043D0000AD1E06B012807D0502080F31188BFF389
:1043E0004F8FBFF36F8FFEE7FFF712FD5020EFF303
:1043F000118680F31188BFF34F8FBFF36F8FA06BCF
:10440000E16B884206D3022F04D0002086F3118886
:10441000BDE8F08794F945503A4649462046FFF7F3
:10442000C2F8681C04D06D1C84F845500120EDE7EB
:10443000606A0028FAD004F1240000F041FA002854
:10444000F4D0B8F1000FF1D00121C8F80010EDE769
:1044500070B50E46040009D0206C78B1502080F36E
:104460001188BFF34F8FBFF36F8FFEE7502080F3AB
:104470001188BFF34F8FBFF36F8FFEE7206848B9F5
:10448000606838B1502080F31188BFF34F8FBFF3BD
:104490006F8FFEE7FFF7BCFC5020EFF3118580F330
:1044A0001188BFF34F8FBFF36F8FA16BE06B884212
:1044B00018D994F94500491CA163411C04D0401C43
:1044C00084F8450001200EE0606A0028FAD004F16B
:1044D000240000F0F5F90028F4D0002EF2D00120DD
:1044E0003060EFE7002085F3118870BD2DE9F747B4
:1044F000002683B08A46040003D0BAF1000F08D02A
:1045000011E0502080F31188BFF34F8FBFF36F8FFE
:10451000FEE7206C38B1502080F31188BFF34F8F35
:10452000BFF36F8FFEE700F00FF9DFF8F4804FF074
:1045300000094FF0805748B9059838B1502080F3F2
:104540001188BFF34F8FBFF36F8FFEE7FFF7ECFBD0
:10455000A56BC5B151462046FFF712F86D1EA56345
:10456000206950B104F1100000F0AAF928B1C8F890
:104570000070BFF34F8FBFF36F8FFFF7F5FB012084
:1045800006B0BDE8F087059808B11EB106E0FFF758
:10459000EBFB27E06846FFF7C1FC0126FFF7E4FBD1
:1045A000FFF742FDFFF7C0FB94F94400401C01D126
:1045B00084F8449094F94500401C01D184F845905A
:1045C000FFF7D2FB05A9684600F02CF8002820462A
:1045D0000AD0FFF781FA00F0ABF92046FFF72EF979
:1045E0000028B3D00020CBE7FFF728F990B104F101
:1045F00024000599FFF7A0FC2046FFF76DFA00F0B4
:1046000097F90028A2D1C8F80070BFF34F8FBFF30D
:104610006F8F9BE72046FFF75FFA00F089F995E777
:1046200004ED00E02DE9F0410C46050011D0C4B1C5
:10463000FFF77AFB174B5A696E682068911B471C7D
:1046400017D02F689B6A9F4219D0964217D8012431
:1046500010E0502080F31188BFF34F8FBFF36F8FAE
:10466000FEE7502080F31188BFF34F8FBFF36F8FA9
:10467000FEE70024FFF778FB2046BDE8F081884282
:1046800005D9401A20602846FFF748FCF1E70020D2
:104690002060DCE7340000202DE9FF5F8346DDE980
:1046A0000E87994616468A469000FFF74BFA05009A
:1046B0001CD05C20FFF746FA040014D000202563CC
:1046C00084F85900CDE90240CDE900874B463246D7
:1046D00051465846FFF721F82046FEF7BDFE01205F
:1046E00004B0BDE8F09F2846FFF752FB4FF0FF30C3
:1046F000F6E7F0B585B0DDE90B640A9DA6B1DCB143
:104700005C2700972663022684F85960002604AFD0
:10471000CDE90246CDE90057FEF7FFFF2046FEF740
:104720009BFE049805B0F0BD502080F31188BFF3C4
:104730004F8FBFF36F8FFEE7502080F31188BFF3D8
:104740004F8FBFF36F8FFEE70548C16919B1806BCA
:1047500018B1002070470120704702207047000008
:1047600034000020014840697047000034000020F8
:104770002DE9F041304C0027A06B18B1206A401C95
:10478000206251E06669761C666113D1606800683A
:1047900038B1502080F31188BFF34F8FBFF36F8F74
:1047A000FEE76068A1686160A060A06A401CA0622A
:1047B000FFF712F9206BDFF88480864209D3606826
:1047C000006890B16068C068C568686886420FD2AA
:1047D00020632068C06A00EB800158F8210001289E
:1047E00000D90127206AF8B120E04FF0FF30EFE751
:1047F000281DFFF725FAA86A18B105F11800FFF780
:104800001FFAE86AA169884200D9A06100EB800123
:1048100008EB8100291DFFF77BFAE86A2168C96A65
:104820008842CCD30127CAE7FFF736FA606A00B1A5
:1048300001273846BDE8F081340000201403002031
:1048400070B504004FF0000133D01B4D286884423E
:1048500007D0502080F31188BFF34F8FBFF36F8FC5
:10486000FEE7206D38B1401E2065E36CE26A9A4293
:104870001FD040B11DE0502080F31188BFF34F8F4F
:10488000BFF36F8FFEE7201DFFF7DAF9E06CE062FF
:10489000C0F13800A061E06AA969884200D9A86126
:1048A000064900EB800001EB8000211DFFF730FA84
:1048B0000121084670BD00003400002014030020D0
:1048C00070B5C068C46854B104F118000646FFF71B
:1048D000B7F9144DA86B50B13146134815E050207C
:1048E00080F31188BFF34F8FBFF36F8FFEE7201D5A
:1048F000FFF7A6F9E06AA969884200D9A8610B49C7
:1049000000EB800001EB8000211DFFF701FAE06A57
:104910002968C96A884202D90120686270BD0020F6
:1049200070BD0000340000209C070020140300200C
:104930002DE9F0472C4D00242746A86B38B1FFF72E
:10494000F3F9A86B401EA863A86B40B146E0502065
:1049500080F31188BFF34F8FBFF36F8FFEE7296994
:10496000224E0120D1B3A6F5916980463068E0B1AE
:10497000F068C46804F11800FFF762F9201DFFF722
:104980005FF9E06AA969884200D9A86100EB80015B
:1049900009EB8100211DFFF7BBF9E06A2968C96AAC
:1049A0008842E3D3C5F82480E0E70CB1FFF714F8A0
:1049B0002C6A4CB14FEA0806FFF7DAFE00B16E62CE
:1049C000641EF9D100202862686A38B108490127BD
:1049D00038070860BFF34F8FBFF36F8FFFF7C4F93D
:1049E0003846BDE8F0870000340000209C07002016
:1049F00004ED00E010B586B0FEF796FD114CA068FE
:104A0000B8B100200390049005AA04A903A8FFF7F9
:104A100035F9DDE9032102208DE8070000230AA112
:104A20000B48059AFFF765FEE06010B106B0012063
:104A300010BD502080F31188BFF34F8FBFF36F8FED
:104A4000FEE7000070000020546D72205376630072
:104A5000B53A00082DE9FF411E46134602000A9DA3
:104A60004FF0000016D0144CA768002F0FD0CDE9EE
:104A700000130292062917DAFFF766FE02284FF0AC
:104A800000030FD000226946A068FFF7D3FB04B0F3
:104A9000BDE8F081502080F31188BFF34F8FBFF342
:104AA0006F8FFEE72A46EEE7002332466946384616
:104AB000FFF770FCEBE7000070000020F84A0008E8
:104AC00000000000000000000000000000000000E6
:104AD00000020000180000000000000000000000BC
:104AE000000000000000000001020304060708099E
:104AF000000000000102030464656661756C745473
:104B000061736B00244B000800000020B00000001F
:104B1000C4280008D44B0008B0000020F81E000094
:104B2000D428000800000000000000000000000081
:104B30000000000000000000000000000000000075
:104B40000000000000000000010000001000000054
:104B5000000000000024F40000000000000000003D
:104B60000000000000000000000000000000000045
:104B70000000000000000000000000000000000035
:104B80000000000000000000000000000000000025
:104B90000000000000000000000000000000000015
:104BA0000000000000000000000000000000000005
:104BB00000000000000000000000000000000000F5
:104BC0000000000000000000AAAAAAAA000000003D
:044BD00000000000E1
:04000005080000ED02
:00000001FF
