:020000040800F2
:10000000381F00209D010008F72500086121000825
:10001000F5250008690B0008AD2A00080000000063
:1000200000000000000000000000000005010008C2
:100030006B0B00080000000049010008452700087C
:10004000B7010008B7010008B7010008B7010008B0
:10005000B7010008B7010008B7010008B7010008A0
:10006000B7010008B7010008B7010008B701000890
:10007000B7010008B7010008B7010008B701000880
:10008000B7010008B7010008B7010008B701000870
:10009000B7010008B7010008B7010008B701000860
:1000A000B7010008B7010008B7010008B701000850
:1000B000B7010008B7010008D1270008B701000800
:1000C000B7010008B7010008B7010008B701000830
:1000D000B7010008952A0008A12A0008B701000806
:1000E000B7010008B7010008B7010008DFF810D019
:1000F00000F06AFC0048004725350008AFF3008097
:10010000381F0020224B19680868B0E8F00F80F310
:100110000988BFF36F8F4FF0000080F311884EF015
:100120000D0E70470000000006480068006880F36C
:10013000088862B661B6BFF34F8FBFF36F8F00DFE1
:1001400000BF00BF08ED00E0EFF30980BFF36F8F41
:100150000F4B1A6820E9F00F106008B54FF05000FF
:1001600080F31188BFF34F8FBFF36F8F04F0EEFA67
:100170004FF0000080F31188BDE808401968086856
:10018000B0E8F00F80F30988BFF36F8F704700BFAE
:1001900040000020EFF305807047000006488047CC
:1001A00006480047FEE7FEE7FEE7FEE7FEE7FEE75C
:1001B000FEE7FEE7FEE7FEE7CF270008ED000008B8
:1001C000202A04DB203A21FA02F00021704721FAAC
:1001D00002F3D040C2F12002914008431946704713
:1001E0000649074A0868504343F239021044086040
:1001F000400870470149086070470000B8000020BF
:100200006D4EC64140EA01039B0703D009E008C9CF
:10021000121F08C0042AFAD203E011F8013B00F8CB
:10022000013B521EF9D27047D2B201E000F8012B17
:10023000491EFBD270470022F6E710B513460A4666
:1002400004461946FFF7F0FF204610BD30B50546BD
:100250002A460B4612F8010B13F8014B08B1A042D5
:10026000F8D01CB1002802D06D1CF1E7284630BD43
:10027000421C10F8011B0029FBD1801A7047F0B412
:1002800080EA0102D40F4200B2EB410F02D20246D3
:10029000084611464A0042D0C30DDDB2C1F3C75231
:1002A000AD1A202D35DAC1F3160141F4000204B174
:1002B0005242C5F1200602FA06F12A411044B3EB7E
:1002C000D05F23D0C4B1012DA0EBC35009DCF0BC3A
:1002D0004FF0004202EAC352DBB200F5000000F02A
:1002E0009FB9400000F1807000EBC350A0F1807016
:1002F00040EAD170490009E0490841EAC071A0EB29
:10030000C35000F50000400800EBC350F0BC00F003
:100310007EB96142012202EB4101001BF6E7F0BC0D
:10032000704781F00041AAE780F00040A7E780EA2B
:10033000010210B502F00043400022D04A001FD055
:10034000010E01EB1261C0F35600C2F3560240F4F5
:10035000000042F40002A0FB022000047F391404D4
:1003600000D0401C50EA124001D44000491EC2B2E5
:100370000C0604EBD010401C4008802A02D003E099
:10038000002010BD20F00100002900DA00201843F1
:1003900010BD30B480EA010202F0004530F00042A6
:1003A00021F0004013D090B1C30DD40DC2F316015B
:1003B000C0F31600E41A41F4000140F400027D3459
:1003C000914201D3641C00E04900002C02DA30BCE9
:1003D000002070474FF400000023914201D3891A96
:1003E000034340084FEA4101F7D151B1914202D194
:1003F0004FF0004105E002D24FF0010101E06FF043
:10040000010103EBC450284430BC00F000B94200A5
:1004100005D0C0F3C7525242914201DC0020704720
:1004200000EBC15070472DE9F04D81EA030404F060
:10043000004B21F0004514464FF0000A23F0004124
:1004400050EA050220D054EA01021DD0C5F30A5734
:100450000246C5F31303C1F31300C1F30A5640F477
:10046000801543F48013A7EB0608101BD64608F24C
:10047000FD3873EB050002D308F1010801E0921882
:100480005B41B8F1000F03DA00200146BDE8F08DB2
:1004900000204FF48011064684460EE0171B73EBD4
:1004A000050705D3121B63EB050306434CEA010C59
:1004B00049084FEA300092185B4150EA0107EDD13C
:1004C00052EA030012D082EA040083EA05010843DD
:1004D00005D0101BAB4106D20122002306E000220A
:1004E0004FF0004302E06FF0010253101AEB0600D8
:1004F0004CEB085110EB0A0041EB0B01BDE8F04D4D
:1005000000F0BCB896230022114600F089B80EB561
:1005100040F2334102910021CDE900110A460B4619
:1005200000F0BBF803B000BDC1F30A5210B5C1F32F
:10053000130140F2FF3341F480119A4201DA0020A6
:1005400010BD40F233439A42A2F2334203DC5242DE
:10055000FFF736FE10BD904010BD00F0004230F0B5
:1005600000400AD0C10D01F56071C0F3160042EAE7
:100570000151C208400711437047002001467047EF
:1005800030B50B46014600202022012409E021FA63
:1005900002F59D4205D303FA02F5491B04FA02F560
:1005A0002844151EA2F10102F1DC30BD2DE9F05FF7
:1005B0000546002092469B468846064681464024D2
:1005C0001BE02846414647462246FFF7F9FD5346C1
:1005D0005A46C01A914110D311461846224600F0DF
:1005E00005FA2D1A67EB01084F462246012000212B
:1005F00000F0FCF917EB00094E41201EA4F10104A4
:10060000DFDC484631462A464346BDE8F09F0029D4
:10061000A8BF7047401C490008BF20F00100704788
:1006200010B4B0FA80FC00FA0CF050EA010404BFE8
:1006300010BC704749B1CCF1200421FA04F411FA3E
:100640000CF118BF012121430843A3EB0C01CB1D82
:100650004FEA00614FEA102042BF002010BC7047F3
:1006600000EBC35010440029A4BF10BC7047401CCD
:10067000490008BF20F0010010BC704710B5141EDF
:1006800073F1000408DA401C41F1000192185B414B
:100690001A4301D120F0010010BD2DE9F04D924622
:1006A0009B4611B1B1FA81F202E0B0FA80F2203239
:1006B000904600F09BF904460F4640EA0A0041EAE2
:1006C0000B0153465A46084313D0114653EA010022
:1006D00019D0C8F140025046FFF772FD05460E469C
:1006E00050465946424600F081F9084305D00120A2
:1006F00004E020463946BDE8F08D0020054346EA77
:10070000E0762C4337430A986305E40AA0EB08001F
:100710000022FD0A44EA47540A3002D5002001466F
:10072000E9E7010510196941DDE90845001969414A
:10073000BDE8F04DA2E72DE9FE4F804681EA0300B7
:10074000C00F0C46009021F0004123F00045B8EBAB
:100750000200A94105D24046214690461C460B4660
:10076000024623F00040104347D0270DC7F30A008C
:10077000C3F30A510290401A019040286BDAC3F388
:10078000130040F4801B0098924620B10023D2EB66
:10079000030A63EB0B0B01985946C0F14002504627
:1007A00000F024F906460D4650465946019A00F0DD
:1007B0002CF910EB08006141002487EA115284EA09
:1007C000E7731A4340D0009A62B3019A012A4FEAB4
:1007D000075215DC001B61EB02014FF0004202EAF8
:1007E0000752CDE90042001C41F5801132462B46EC
:1007F000FFF753FF03B0BDE8F08F40462146F9E70D
:10080000001B61EB0201001C41F5801300185B41E5
:100810002018A2F5001747EB030140EAD570B6197E
:100820006D4111E06D084FEA360645EAC0754FEAA2
:100830000752001B61EB0201001C41F580114908C1
:100840004FEA30000019514132462B4603B0BDE853
:10085000F04FFFF713BF0098012240000023D0EBB8
:10086000020263EBE073009821464FEAE074B8EBB4
:10087000000061EB0401E9E783F000435BE781F0EE
:10088000004158E72DE9FE4F81EA030404F00044DB
:1008900021F0004100944FF0000B23F0004350EA98
:1008A00001045ED052EA03045BD0C3F30A54C1F3DF
:1008B0000A552C44A4F2F3340194A0FB0254C1F372
:1008C000130141F48011C3F3130343F4801301FBBC
:1008D000024400FB034E840A970A44EA815447EA23
:1008E0008357A4FB076802958D0A05FB07854FEA2D
:1008F000932C04FB0C542705029D4FEA065847EA47
:100900001637B5EB08056EEB070C870E920E47EA1B
:10091000811742EA8312A7FB0201B6EB0B0164EBDD
:1009200000042B0D43EA0C335E1844EB1C50DA46EE
:100930005146E7FB0201C5F313044FEA0B3343EAC8
:1009400014534FEA0432019C43EA0603A4F10C0459
:100950000294009CCDE900B4FFF79FFE03B0BDE810
:10096000F08F00200146F9E7C1F30A52C1F31301E9
:1009700040F2FF3341F480119A4202DA002001462E
:10098000704740F233439A42A2F2334202DC5242B1
:10099000FFF716BC00F02AB830B5041E71F1000450
:1009A00004DB4FF00044404264EB0101141E73F17C
:1009B000000405DB1C464FF00043524263EB040386
:1009C000994208BF904230BD064C074D06E0E068F2
:1009D00040F0010394E8070098471034AC42F6D386
:1009E000FFF788FBE056000800570008202A04DBC8
:1009F000203A00FA02F1002070479140C2F1200332
:100A000020FA03F3194390407047202A06DBCB17E6
:100A1000203A41FA02F043EAE07306E041FA02F3B9
:100A2000D040C2F1200291400843194670470000AF
:100A30002DE9FC4115460E46044600F053F85020BF
:100A400000F004F96946204600F042F89DF80100E4
:100A50009DF80210000340EA01109DF803109DF874
:100A6000042040EA11100907090B41EA02249DF80D
:100A700005100C43FFF746FD0B49FFF758FC6FF0DC
:100A800013073946FFF7C3FC28602046FFF73AFDFD
:100A90000649FFF74CFC3946FFF7B9FC0449FFF75C
:100AA00040FC3060BDE8FC810000C84200004843C3
:100AB000000048421CB505A1032309680191642187
:100AC000009101AA702100F0C1FB1CBDE1080000EB
:100AD00008B5642200920A460623712100F094FAB8
:100AE00008BD00001CB505A103230968019164211C
:100AF000009101AA702100F0A9FB1CBDAC330000DD
:100B00001CB505A10123096801916421009101AA86
:100B1000B82100F09BFB1CBD010000001CB5642146
:100B20000091022301AAB92100F06EFABDF8040079
:100B300040BAFFF7ECFC4FF03332034BFFF773FC86
:100B4000FFF7F2FC80B21CBD3333F33F1CB505A1A7
:100B50000123096801916421009101AAB82100F0E4
:100B600075FB1CBD10000000FEE7704710B590F843
:100B700021100022022905D00421816380F8202061
:100B8000012010BD01680B6823F00E030B600168A3
:100B90000B6823F001030B6090F84030C46B012117
:100BA00001FA03F3636080F8211080F820201046DA
:100BB00010BD000010B590F821100024022903D0C8
:100BC0000421816301243DE001680A6822F00E02DD
:100BD0000A6001680A6822F001020A601A4A016884
:100BE000914201D1012121E0174A1432914201D1F1
:100BF00010211BE0144A2832914201D1891515E0D9
:100C0000114A3C32914201D189140FE00E4A503210
:100C1000914202D14FF4803108E00B4A6432914294
:100C200002D14FF4801101E04FF08071064A083A7A
:100C30005160012180F82110002180F82010416BC3
:100C400001B18847204610BD0800024070B5044637
:100C500000F010F90546601C02D0044800780444F6
:100C600000F008F9401BA042FAD370BD300000200C
:100C70002DE9F84FDFF8B891002409F1040A0AF1D0
:100C8000040B23460F270BF1040EC9E00125A540F4
:100C90002A40AA427DD1674ED1F804C0ACEB0608C9
:100CA000B44532D014DCBCF1030F3AD009DCBCF1FE
:100CB000000F2AD0BCF1010F1CD0BCF1020F31D1C2
:100CC0001DE0BCF1110F17D0BCF1120F2AD119E0B1
:100CD000B8F5881F19D006DCB8F5803F15D0B8F5F7
:100CE000801F1FD111E0B8F5001F0ED0B8F5041F0A
:100CF00018D10AE0CB6815E0CB681B1D12E0CB6869
:100D000008330FE0CB680C330CE08B682BB1012B60
:100D10004FF0080303D0456104E0042302E00561BD
:100D200000E00023FF2A01D8064601E000F1040696
:100D30004FEA840501D9A5F12005D6F8008007FA0D
:100D400005FC28EA0C0803FA05F548EA0508C6F888
:100D500000804D68ED0062D5374DAE6946F0010662
:100D6000AE61AD6924F0030605F001050095334D31
:100D700006EB050CDCF80850A607360F07FA06F854
:100D800025EA0805DFF8B880404503D14FF0000898
:100D900017E044E0DFF8AC80404502D14FF0010895
:100DA0000FE0DFF8A480404502D14FF0020808E0D0
:100DB000DFF89880404502D14FF0030801E04FF082
:100DC000040808FA06F848EA0508CCF808804D68D7
:100DD000D9F80060ED034D4601D5164300E0964377
:100DE0002E604D68DAF80060AD03554601D5164314
:100DF00000E096432E604D68DBF80060ED025D4632
:100E000001D5164300E096432E604D68DEF8006081
:100E1000AD02754601D5164300E096432E60641C72
:100E20000D682A46E5407FF431AFBDE8F88F000039
:100E300000040140000011100010024000000140B9
:100E400000080140000C0140001001400014014066
:100E50008068084000D001207047C26821EA020380
:100E60000A4043EA0241016170470AB101617047DB
:100E70000904FBE70148806870470000300000204B
:100E800070B5040025D094F83D00002520B984F801
:100E90003C50204600F070FA242084F83D00206881
:100EA000016821F0010101602068016841F40041FE
:100EB00001602068016821F40041016000F00CFC31
:100EC0004D4A6168914201D84C4900E04C49884242
:100ED00001D2012070BD4B492368B0FBF1F15E687F
:100EE00026F03F060E435E606368934206D94FF4D6
:100EF000967359434FF47A73B1FBF3F12368491C9D
:100F00001E6A26F03F06314319626168914210D88B
:100F10004900401EB0FBF1F2521CC2F30B02042A3E
:100F200001D2042022E0B0FBF1F0401CC0F30B0022
:100F30001CE0A268F2B301EBC10303EB0116431EF0
:100F4000B3FBF6F35B1C43F480431B0549D092B31B
:100F500001EBC10202EB0111401EB0FBF1F0401C9D
:100F6000C0F30B0040F4804040F400402168CA699F
:100F70004CF6FF739A431043C861D4E9071001434C
:100F80002068026822F0C00211430160D4E9030125
:100F900001432068826848F2FF339A43114381601D
:100FA000D4E9050108432168CA6822F0FF02104312
:100FB000C86001E00EE016E02068016841F0010120
:100FC00001602564202084F83D00256384F83E50AC
:100FD000002070BD01EB4106431EB3FBF6F35B1C22
:100FE000B3E70120C2E701EB4101401EB0FBF1F085
:100FF000401CC0F30B00B7E7A086010080841E00F0
:1010000000093D0040420F002DE9F84F0025DDF8B2
:101010002890984617468A4604460095FFF72AFF0F
:10102000064694F83D0020287AD1192301228349ED
:101030002046009601F096F90028F5D194F83C007E
:1010400001286DD0012084F83C0020680168C907A0
:1010500003D1016841F0010101602068016821F4B9
:1010600000610160222084F83D00102084F83E00D9
:1010700025646762A4F82A80608D20857048E0624C
:1010800033464A465146204601F082F800287DD179
:10109000208DDFF8B081202768B1012814D0022804
:1010A000206801681ED041F48061016020684169B8
:1010B00080690090B5E0206841698169009101680C
:1010C00041F400710160ACE02068016821F48061A6
:1010D000016072B62068416981690091016841F43C
:1010E00000710AE041F40061016072B62068416954
:1010F00081690091016821F48061016062B690E02D
:10110000032868D801280CD002284B464FF0000273
:101110004146204600960FD001F024F9B0BB10E004
:101120008AE032464946204601F09BF970BB2068B0
:101130000069616A08706BE001F014F930BB72B6A7
:1011400034E02068016821F48061016072B6206893
:101150000069616A0870606A401C6062208D401EF0
:101160002085608D401E6085374846F2A8110068D2
:10117000B0FBF1F0C0EBC00000EB80000090401E1F
:10118000009008D020684069C04300E029E0400793
:101190000CD50098F3E744F8305F6773A5732069B6
:1011A00040F02000206162B625731AE020680168D3
:1011B00041F40071016020680069616A0870606A2A
:1011C000401C6062218D491E2185618D491E61850B
:1011D00062B621681AE032464946204601F041F9DC
:1011E00010B10120BDE8F88F20680069616A0870BD
:1011F000606A401C6062218D491E2185618D491EF7
:10120000618521684A69D24352070AD4096901708D
:10121000606A401C6062208D401E2085608D401EEB
:101220006085208D00287FF46BAF84F83D7084F8D2
:101230003E5084F83C50D5E70220D3E7020010006E
:101240000000FFFF040001003C0000202DE9F84FE2
:101250001F4690468A460446DDF82890FFF70AFEAE
:10126000054694F83D0020287FD1192301224049EA
:101270002046009501F076F8002876D194F83C00DD
:10128000012872D0012084F83C0020680168C90759
:1012900003D1016841F0010101602068016821F477
:1012A00000610160212084F83D00102084F83E0098
:1012B00000262664C4F824806785608D20852D482B
:1012C000E0622B464A465146204600F0D7FF90B9CF
:1012D000206841698069009036E02A4649462046E8
:1012E00001F0F2F850B1206C042804D120680168A4
:1012F00041F4007101600120BDE8F88F606A216847
:1013000000780861606A401C6062618D491E6185D9
:10131000218D491E89B2218522685369DB435B0711
:101320000BD451B100781061606A401C6062608D1E
:10133000401E6085208D401E20852A464946204655
:1013400000F0EAFF0028CED1208D0028C5D154F846
:101350003D0B016841F400710160202004F81E0972
:10136000E67766770020C7E7FFE70220C4E70000C2
:10137000020010000000FFFF10B586B000210091B0
:101380000191029103910068104988421BD1104CD1
:10139000A06940F00800A061A069694600F008005B
:1013A00004904FF4406000901220019003200390BD
:1013B0000848FFF75DFCE06940F48000E061E06907
:1013C00000F48000049006B010BD000000580040FA
:1013D00000100240000C014002488168027811446C
:1013E0008160704730000020074810B5016841F067
:1013F00010010160032000F0A7F80F2000F006F8AC
:1014000000F050F8002010BD0020024030B5054625
:101410001F4887B0C16941F00401C161C06906A9D4
:1014200000F00400009001A800F036F90498B0B173
:1014300000F052F940001749174AB0FBF1F1174884
:10144000491E0260416040F2E7320021C0E90321F9
:101450008160816100F028FB040003D015E000F0FA
:101460003BF9E8E70D4800F04DFB04000DD11E20CC
:1014700000F03CF8102D07D2002229461E2000F073
:1014800043F80748056000E0012407B0204630BD5E
:101490000010024040420F00000800401C020020E3
:1014A000340000200F4808B5816941F001018161D5
:1014B000816901F001010091C16941F08051C16170
:1014C000C069002200F0805000900F21901E00F0B3
:1014D0001BF80548416821F0E06141F0007141606E
:1014E00008BD00000010024000000140002809DB98
:1014F00000F01F02012191404009800000F1E0202E
:10150000C0F8001170470000F0B40E4B1B680C4689
:10151000C3F30223C3F10705042D00D90425191DC7
:10152000072901D2002300E0DB1E012606FA05F19F
:10153000491E214099409E40761E16403143F0BC22
:1015400001F0C6BA0CED00E0064900F00702086899
:101550004FF6FF03184040EA0220034A1043086098
:10156000704700000CED00E00000FA052DE9F0479F
:101570000F46050061D0434E306800F00700B842C6
:1015800009D2306820F0070038433060306800F03E
:101590000700B84251D128683B4C810712D540075B
:1015A00003D5606840F4E06060602878000703D5E8
:1015B000606840F4605060606068A96820F0F000E6
:1015C000084360602878C00728D06868012810D0D8
:1015D0002168022810D0890700292EDA616821F0DD
:1015E000030101436160FFF745FC804641F2883901
:1015F0000DE021688903EFE78901EDE7FFF73AFC89
:10160000A0EB0801494502D90320BDE8F0876068D6
:10161000696800F00C00B0EB810FEFD1306800F08A
:101620000700B8420BD9306820F00700384330601B
:10163000306800F00700B84201D00120E5E72878C3
:10164000400705D56068E96820F4E0600843606001
:101650002878000706D56068296920F4605040EAC0
:10166000C100606000F058F86168084AC1F30311D6
:10167000515CC8400649086006480068FFF7C6FE8E
:101680000020C2E700200240001002407C55000804
:101690003C000020340000200F2202600C4A5368F6
:1016A00003F003034360536803F0F003836053685F
:1016B00003F4E063C36052684FF4E06303EAD202CC
:1016C00002610448006800F00700086070470000ED
:1016D00000100240002002400448054900684968A3
:1016E000044AC1F30221515CC84070473C0000200D
:1016F000001002408C5500080448054900684968FC
:10170000044AC1F3C221515CC84070473C0000202C
:10171000001002408C55000812A185B00FC98DE859
:101720000F0014A0144A006804905168134801F097
:101730000C03042B10D0082B0ED1C1F38343C90333
:101740001DF803000AD5516804AAC1F34041515C59
:101750000A4A5043B0FBF1F005B0704708494843CE
:10176000FAE7000002030405060708090A0B0C0D3E
:101770000E0F1010010200000010024000127A004B
:1017800000093D002DE9F84F040070D02078C04DCD
:10179000C00749D06868C0F38100012807D0686895
:1017A000C0F38100022809D16868C00306D5286803
:1017B000800339D560680028E7D035E06068B0F56F
:1017C000803F0BD010B1B0F5A02F11D0286820F4C5
:1017D00080302860286820F4802002E0286840F4E7
:1017E00080302860606890B1FFF744FB06460AE04D
:1017F000286840F480202860F0E700BFFFF73AFB3C
:10180000801B642873D828688003F7D50CE0FFF7A5
:1018100031FB064605E000BFFFF72CFB801B642868
:10182000F0D828688003F7D420789A4E80074FF0CC
:1018300001094FF0000839D5686810F00C0F07D087
:101840006868C0F38100022809D16868C00306D423
:101850002868800714D52069012808D110E0206984
:10186000B0B1C6F80090FFF705FB074605E00AE1B6
:10187000FFF700FBC01B0228C4D828688007F7D5F3
:101880002868616920F0F80040EAC10028600DE096
:10189000C6F80080FFF7EEFA074604E0FFF7EAFA21
:1018A000C01B022823D828688007F7D420780007B7
:1018B0002CD57948A169D9B1C0F80090FFF7DAFAC0
:1018C000074604E0FFF7D6FAC01B02280FD8686A63
:1018D0008007F7D571484FF4FA510068B0FBF1F07A
:1018E000009000BF0098411E0091FAD20EE080E007
:1018F000C0F80080FFF7BEFA074604E0FFF7BAFA27
:10190000C01B022875D8686A8007F7D42078400782
:1019100060D5E8690027C00008D4E86940F080502D
:10192000E861E869012700F0805000905C48016898
:10193000C90513D40168834641F480710160FFF743
:1019400099FA824606E000BFFFF794FAA0EB0A007E
:1019500064284ED8DBF80000C005F5D5E068012802
:101960000AD008B1052813D0286A20F001002862A7
:10197000286A20F0040002E0286A40F00100286292
:10198000E06841F2883B98B1FFF774FA82460BE0B9
:10199000286A40F004002862EEE700BFFFF76AFA09
:1019A000A0EB0A0159455AD8286A8007F6D50CE001
:1019B000FFF760FA824605E0FFF75CFAA0EB0A0148
:1019C00059454CD8286A8007F6D41FB1E86920F041
:1019D0008050E861E06988B36968C1F38101022938
:1019E00044D00228C6F8608004D0FFF743FA0446CA
:1019F00038E034E0FFF73EFA074604E0FFF73AFA32
:101A0000C01B02282BD828688001F7D4206AB0F5C3
:101A1000803F05D16868A16820F400300843686001
:101A2000D4E908010843696821F474110843686027
:101A3000C6F86090FFF71EFA044606E025E000BFF6
:101A4000FFF718FA001B022809D828688001F7D58B
:101A50001BE000BFFFF70EFA001B022802D903208B
:101A6000BDE8F88F28688001F4D40EE00128F7D093
:101A70006868226A00F48031914204D1616A00F4FE
:101A80007010884201D00120EAE70020E8E700005A
:101A90000010024000004242800442423C0000200C
:101AA000007000407047704710B5040003D094F8F0
:101AB0003D0010B107E0012010BD002084F83C007B
:101AC000204600F01EF8022084F83D00211D206809
:101AD00000F084FE012084F8460084F83E0084F87B
:101AE0003F0084F8400084F8410084F8420084F804
:101AF000430084F8440084F8450084F83D00002049
:101B000010BD704790F83D10012901D001207047A9
:101B1000022180F83D100168CA6842F00102CA60E3
:101B200000680B49884208D0B0F1804F05D00949C0
:101B3000884202D00849884204D1816801F0070137
:101B4000062903D0016841F00101016000207047BF
:101B5000002C01400004004000080040704770B5B0
:101B60000446006801694FF00005C943890715D490
:101B7000C168C943890711D4E91E0161012020779A
:101B8000206880698007204602D0FFF7E7FF04E065
:101B900000F098F8204600F096F825772068016953
:101BA000C943490717D4C168C943490713D46FF023
:101BB00004010161022020772068806910F4407FD1
:101BC000204602D0FFF7CAFF04E000F07BF8204671
:101BD00000F079F8257720680169C943090716D410
:101BE000C168C943090712D46FF0080101610420DC
:101BF00020772068C0698007204602D0FFF7AEFF3B
:101C000004E000F05FF8204600F05DF825772068DA
:101C10000169C943C90617D4C168C943C90613D4A9
:101C20006FF010010161082020772068C06910F46E
:101C3000407F204602D0FFF791FF04E000F042F819
:101C4000204600F040F8257720680169C943C9079C
:101C500008D1C168C943C90704D1891E0161204662
:101C600000F032F820680169C943090609D4C16847
:101C7000C943090605D46FF0800101612046FFF7D2
:101C800011FF20680169C943490609D4C168C943E5
:101C9000490605D46FF040010161204600F01EF8AE
:101CA00020680169C94389060BD4C168C943890604
:101CB00007D46FF0200101612046BDE87040FFF7B6
:101CC000F2BE70BD7047704700680349884201D179
:101CD000FFF782BB7047000000080040704708B55E
:101CE000034690F83E0020281CD181B17AB193F8C8
:101CF0003C00012816D0012083F83C0018631846E8
:101D000000F07AFE002803D1196B012901D00120CF
:101D100008BD19680A684A680092CA6842F0100251
:101D2000CA6008BD022008BD10B504460068084A14
:101D300090420BD107480180406801F06FFD2046BA
:101D4000BDE8104080220449FFF7C9BF10BD000064
:101D50000044004000000020C00000207047000048
:101D6000F8B5026804461068D168536910F00F0F87
:101D70004FF0000553D003F0010601F4907737438C
:101D80005FD0C20705D0CA0503D5226C42F001021C
:101D90002264420705D5DA0703D0226C42F0020222
:101DA0002264820705D5DA0703D0226C42F00402D0
:101DB0002264020707D501F02002324303D0226CCF
:101DC00042F008022264226C002A34D0800604D536
:101DD000880602D5204600F057FD20684069216C36
:101DE000C0F38010090700D430B3204600F034FD62
:101DF0002068416949061BD5416921F040014161D4
:101E0000A06BA8B158494163A06BFEF7D3FE002830
:101E100011D0A06B416B01B0BDE8F04008478306CC
:101E20000FD58B060DD52046BDE8F84000F02CBD3F
:101E30002046FFF793FFF8BD2046FFF78FFF25648C
:101E4000F8BD266B2023012E52D1C60650D5CE06F2
:101E50004ED5106850680090506940062AD5A16B95
:101E6000086840680004000CEAD0A68D8642E7D9D5
:101E7000E0858869202818D0D06820F48070D06070
:101E80002068416921F0010141612068416921F028
:101E90004001416184F83E3025632068C16821F02B
:101EA0001001C160A06BFEF761FEA08DE18D401AAC
:101EB00081B219E0A08DE18D401A81B2E08D002839
:101EC000BED00029BCD0D06820F49070D0602068CB
:101ED000426922F00102426184F83E3025632068A5
:101EE000C26822F01002C2602046FFF71DFFF8BD55
:101EF00005062BD50D0629D594F83D002128F6D1ED
:101F0000A068B0F5805F01D12069B0B1206A411CA2
:101F10002162216800784860E08C401E0004000CBB
:101F2000E084E4D12068C16821F08001C1602068AC
:101F3000C16841F04001C160F8BD206A0088C0F36B
:101F400008005060206A801C2062E5E74006F3D557
:101F50004806F1D5D168204621F04001D16084F8CF
:101F60003D3000F0FCF8F8BD4928000870B50400C9
:101F700004D094F83D00002510B106E0012070BDAA
:101F800084F83C50204600F023F8242084F83D00DB
:101F90002068C16821F40051C160204600F0D0FCE7
:101FA0002068016921F4904101612068416921F0B4
:101FB0002A0141612068C16841F40051C160256473
:101FC000202084F83D0084F83E00002070BD000011
:101FD00070B586B0002400940194029403942E4EB0
:101FE00003682E49022003222D4DB34226D18B696E
:101FF00043F480438B618B6903F4804304938B69C2
:1020000043F004038B618969039201F00401049198
:102010000102CDE9001069462846FEF729FE281581
:10202000CDE90004694628460294FEF721FE00220D
:1020300005212520FFF768FA252028E0194EB34234
:1020400027D1CB6943F40033CB61CB6903F4003370
:1020500004938B6943F004038B618969039201F057
:10206000040104910421CDE9001069462846FEF7D9
:10207000FFFD0820CDE90004694628460294FEF7DA
:10208000F7FD002205212620FFF73EFA2620FFF764
:102090002DFA06B070BD000000380140001002406B
:1020A0000008014000440040704700002DE9F8435B
:1020B000044690F83D001F4616460D4620284CD198
:1020C000C5B1BEB194F83C00012846D0012084F887
:1020D0003C004FF00008C4F84080212084F83D0007
:1020E000FEF7C8FEA6848146E684A068B0F5805F4E
:1020F00003D004E00120BDE8F883206928B12E4612
:102100005FF0000584F83C800EE00026FAE78021AD
:10211000204600F08CFCA0B9AEB116F8010B216886
:102120004860E08C401EE084E08C4B464FF000029B
:1021300000970028EBD14FF04001204600F077FCDB
:1021400030B10320D7E735F8020BC0F30800E6E70B
:10215000202084F83D000020CDE70220CBE7704727
:10216000FEE701684A69D24352050FD46FF48062DA
:102170004A61002140F8301F2022427381730269B6
:1021800042F0040202610173012070470020704791
:102190002DE9F84F0446C06A1E4693460D46216855
:1021A0000A6842F480620A60082807D0012805D036
:1021B00010F5803F02D0206B112804D120680168FF
:1021C00041F4807101604FF001195B4600224946DD
:1021D0002046009600F0C6F84FF4007840B1206821
:1021E0000068C00501D5C4F840800320BDE8F88F21
:1021F0002069DFF884A0B0F5804F0FD00620216859
:1022000000EAD51747F0F000086133465A460AF154
:102210000601204600F0DAF858BB03E0E8B240F0CF
:1022200001001CE02168E8B2086133465A46514675
:10223000204600F0CBF8E0B920684169816900913F
:10224000016841F4807101605B46002249462046E6
:10225000009600F087F80028C1D147F0F10021680E
:10226000086133465A465146204600F0AFF8002830
:10227000BCD00120BAE7000002000100F8B5044616
:10228000C06A1E460D461746082807D0012805D00B
:1022900010F5803F02D0206B122804D1206801681D
:1022A00041F480710160134600224FF00111204675
:1022B000009600F057F840B120680068C00502D5CC
:1022C0004FF4007020640320F8BD2069B0F5804F02
:1022D0000ED00620216800EAD51040F0F000086119
:1022E00033463A460B49204600F070F878B902E0D0
:1022F00005F0FE0000E0E8B22168086105493346B8
:102300003A46891F204600F061F80028DCD0012001
:10231000F8BD00000800010070B516460D460446E1
:102320000DE02046FFF71DFF08B1012070BD681CBD
:1023300005D0FEF79FFD801BA84207D835B1206865
:102340004069C0434007ECD4002070BD002044F831
:10235000300F20216173A073216941F020012161B8
:102360002073E2E72DE9F0471E4690460D460446ED
:10237000C1F30747DDF8209008E0701C06D0FEF797
:1023800079FDA0EB0900B0420FD876B12068012F8B
:1023900018D0806925EA00000004000C14D0002148
:1023A0004145EAD00020BDE8F087002044F8300F16
:1023B00020216173A073216941F020012161207304
:1023C0000120F0E74069E5E70121E9E72DE9F04761
:1023D0009A4691460E46044600254FF02008C1F368
:1023E000074725E020684069C043400514D42068B1
:1023F000016841F40071016021686FF480604861F8
:10240000256384F83D8084F83E50206C40F0040041
:10241000206484F83C501FE0B9F1FF3F08D0FEF77C
:1024200029FDA0EB0A0149450CD8B9F1000F09D0EC
:102430002068012F13D0806926EA00000004000CF8
:102440000BD0CFE744F8305F84F80D80A573206986
:1024500040F02000206125730120BDE8F08740692D
:10246000EAE72DE9F041002590460E460446202774
:1024700017E04069C043C0060CD454F8301B6FF01D
:102480001000486144F810596777A577206A2062E8
:10249000257717E0FEF7EEFCA0EB0800B04208D865
:1024A0003EB120684169C9434906E2D40020BDE835
:1024B000F08144F8305F6773A573206940F0200015
:1024C000206125730120F2E770B516460D460446DB
:1024D0000DE02046FFF745FE08B1012070BD681CE5
:1024E00005D0FEF7C7FC801BA84207D835B120688D
:1024F0004069C0430006ECD4002070BD002044F8C1
:10250000300F20216173A073216941F02001216106
:102510002073E2E72DE9F04786B0002431480094AB
:10252000019402940394816941F0100181618169F1
:1025300001F010010491816941F0200181618169FC
:1025400001F020010491816941F0040181618169F8
:1025500001F004010491816941F008018161806901
:10256000DFF8848000F008004FF4604504900022FA
:1025700029464046FEF779FCDFF8709048F20207E2
:10258000002239464846FEF770FCDFF864A00022BE
:1025900038215046FEF769FC009502260125039676
:1025A000CDE9015469464046FEF762FB0097039669
:1025B000CDE9015469464846FEF75AFB70208DE884
:1025C000310069464846FEF753FB3820CDE9000547
:1025D000CDE9024669465046FEF74AFB06B0BDE823
:1025E000F087000000100240001001400008014088
:1025F000000C0140FEE7FEE74FF47A7001F026F888
:1026000000F076FF2B48416888472B48FEF752FAC6
:102610002948FEF775FA294C294F40F6B83664254B
:10262000304601F013F8254A23480C32111FFEF7FB
:10263000FFF9A068FDF791FF02460B4621A000F0CC
:1026400037FAE068FDF789FF02460B4623A000F049
:102650002FFA1948FEF77AFAB42000F0F7FF16486F
:10266000FEF75CFA2080014621A000F021FAFDF778
:10267000B7FD90FBF5F105FB110000F28A2081B255
:10268000618021A000F014FAFDF7AAFD90FBF5F19E
:1026900005FB1100FA3080B2A080FDF733FF394608
:1026A000FDF777FEFDF759FF02460B461DA000F02F
:1026B000FFF9B5E7080000204001002014000020C9
:1026C00000007A4454656D70657261747572653A84
:1026D00020252E326620430A0000000048756D69EF
:1026E000646974793A20252E326620430A0000007E
:1026F0004C6967687420496E74656E736974793AC1
:10270000202564206C780A00434F3220436F6E63AB
:10271000656E74726174696F6E3A20256420707002
:102720006D0A000054564F4320436F6E63656E740C
:10273000726174696F6E3A20252E3366206D672FA3
:102740006D330A0010B5502080F31188BFF34F8F0E
:10275000BFF36F8F02F00CFD18B104494FF08050A9
:102760000860002080F3118810BD000004ED00E037
:1027700030B58FB028216846FDF75DFD14210AA809
:10278000FDF759FD01210804CDE900100024029451
:1027900002250491CDE907504FF4E01009906846F6
:1027A000FEF7F0FF08B172B6FEE70F20CDE90A058B
:1027B0004FF48060CDE90C4002210AA80E94FEF788
:1027C000D5FE002801D072B6FEE70FB030BD7047CD
:1027D0000148FFF7C4B900001C020020F0B50268F0
:1027E000164B174C174D4FF08047984205D0B84212
:1027F00003D0A04201D0A84203D122F070064A685B
:102800003243984205D0B84203D0A04201D0A8423A
:1028100003D122F44074CA6822434C6922F080023A
:10282000224302608A68C2620A688262984201D1C9
:102830000969016301214161F0BD0000002C0140E4
:10284000000400400008004010B5406A0021C18526
:10285000C184FFF783FA10BD0168CA6822F4907240
:10286000CA6001684A6922F001024A61016B0129CC
:1028700004D10168CA6822F01002CA60202180F8E1
:102880003E1000210163704708B590F83E102229E0
:1028900001D0022008BD82684FF480539A4201D1D2
:1028A000016921B1816A9A421BD04AB10AE00268EB
:1028B000816A5268C2F308020A80816A891C08E0B2
:1028C000026972B10268526802F07F020A70816A7E
:1028D000491C8162C18D491E0904090CC18503D0C0
:1028E00019E002685268F1E70168CA6822F0200224
:1028F000CA600168CA6822F48072CA6001684A69C5
:1029000022F001024A61202180F83E10016B01296A
:1029100003D0FFF7C9FB002008BD00210163016857
:10292000CA6822F01002CA6001680A68D20602D59D
:102930000A6849680091818DFFF7F6F9EBE700001E
:1029400070B5044600680169E26821F44051114302
:1029500001612169A0680843616908432168CA6868
:1029600041F20C639A430243CA6020684169A2693C
:1029700021F44071114341611E492068884202D10F
:10298000FEF7BAFE01E0FEF7A7FE00EBC00101EB87
:102990000012606864218000B2FBF0F3B3FBF1F336
:1029A0006FF018067343B2FBF0F5B2FBF0F605EBDF
:1029B0008305322303EB0515B5FBF1F5B6FBF1F604
:1029C00005F0F00505EB0615B2FBF0F6B2FBF0F0F2
:1029D000B0FBF1F06FF01802504306EB800003EB00
:1029E0000010B0FBF1F0216800F00F00284488606F
:1029F00070BD00000038014081628285C2850021DF
:102A00000164222280F83E2080F83C100168CA68E8
:102A100042F48072CA6001684A6942F001024A6168
:102A20000068C16841F02001C160002070472DE9B5
:102A3000F041984617460E460446069D1DE0681C68
:102A40001BD02DB1FEF716FAA0EB0800A84214D94E
:102A50002068C16821F4D071C1602068416921F00B
:102A600001014161202084F83D0084F83E000020EF
:102A700084F83C000320BDE8F0812068006836EA55
:102A8000000004D00020B842D9D00020F3E7012094
:102A9000F9E700000148FFF763B900009401002046
:102AA0000148FFF75DB90000D8010020FEE70000F3
:102AB0000FB4054B10B503A9044A029800F0EAF8D8
:102AC00010BC5DF814FB00000D350008BC000020B0
:102AD0000907090E002804DB00F1E02080F800144B
:102AE000704700F00F0000F1E02080F8141D7047DF
:102AF00002E008C8121F08C1002AFAD170477047C7
:102B0000002001E001C1121F002AFBD17047000024
:102B10002DE9FF5F82B00021DDE90430020DDDF810
:102B200040B0034318D044F61050A2F2FF324243A3
:102B30001514119801281FD0A5EB0B00401C5FEA6B
:102B4000000A4FF000064E4FDFF83891B04650466D
:102B500015D5CAF1000413E0119801244AA30128F5
:102B600001D16FEA0B010298119AC0E90031C0E966
:102B7000024206B0BDE8F09FCBF10000DFE704465B
:102B80000021404A491842EB0450CDE9001012E000
:102B9000E00707D032463B4640464946FDF772FE05
:102BA0008046894632463B4610461946FDF76AFE86
:102BB00006460F466410002CEAD1DDE90401DDE988
:102BC0000023BAF1000F06DAFDF75CFE42464B46E1
:102BD000FDF758FE05E0FDF726FC42464B46FDF7A3
:102BE00022FC04460E460022284BFDF7D5FE03D8F2
:102BF0004FF0FF30014607E00022254B20463146CA
:102C0000FDF799FDFDF7B0FE102409E0002C0ADB6A
:102C10000A220023FDF7CAFC039B30321A55641EBA
:102C200050EA0102F2D1641C039AC4F11103144466
:102C3000119A012A03D0012208430DD10AE008436A
:102C400004D000204FF0110B119072E7A3EB0B059D
:102C50006D1E0DE05B4504DD4FF0000205F101053E
:102C600004E003DA4FF00002A5F10105002AECD0E0
:102C700002981199C0E90231C0E9004579E70000E6
:102C8000000014400000F03F300000000000F0435E
:102C90000000E03F2DE9FF4F95B09A468846064672
:102CA0000025EEE1252877D100242746F94A0121A5
:102CB000039400E0044316F8013F203B01FA03F0BF
:102CC0001042F7D130782A2811D06FF02F033078D6
:102CD000A0F13002092A16D8039A44F0020402EB4C
:102CE000820203EB42021044761C0390EFE758F88F
:102CF000042B0392002A03DA504244F40054039058
:102D000044F00204761C30782E2816D116F8010FF4
:102D100044F004042A280DD06FF02F023078A0F17F
:102D20003003092B09D807EB870302EB4303C718CD
:102D3000761CF3E758F8047B761C30786C280FD0AB
:102D400006DC4C2817D068280DD06A2814D104E07E
:102D5000742810D07A280FD10DE044F400140AE052
:102D600044F4801401E044F440147278824202D1A9
:102D700004F58014761C761C307866280BD013DCA2
:102D8000582877D009DC002875D04528F6D0462889
:102D9000F4D047281AD193E118E0632835D064288D
:102DA00079D0652812D18BE1702873D008DC6728B0
:102DB000F1D069286FD06E280DD06F2806D1ACE015
:102DC00073282CD0752874D0782853D05246179980
:102DD00090476D1C54E1C4F30250022809D0032827
:102DE0000DD0D8F8001004280DD00D6008F10408AB
:102DF00046E1D8F80010EA17C1E90052F6E7D8F822
:102E000000100D80F2E70D70F0E718F8041B8DF844
:102E1000001000208DF80100EB46012003E058F877
:102E200004BB4FF0FF3061074FF0000102D40DE00A
:102E300009F101018946B9420FDA8145F8DB1BF837
:102E400009100029F4D108E009F101018946814205
:102E5000FADB1BF809100029F6D103985346A0EBC2
:102E6000090721463846179A00F080FA284400EBFB
:102E7000090507E044E008E10DE01BF8010B5246AC
:102E800017999047B9F10109F7D2534621463846C0
:102E9000179AF2E039E00A21C4F302524FF0000B16
:102EA0000091022A06D058F8040BC117032A09D052
:102EB0000AE023E008F1070020F00702F2E802012F
:102EC000904605E000B2C117042A01D140B2C117F3
:102ED000002906DA0A460021404261EB02012D2258
:102EE00002E0220504D52B228DF80420012203E004
:102EF000E20701D02022F7E7914657E00A2100E0DF
:102F000010214FF0000B00910BE010214FF0000B4F
:102F100044F004040827009103E008204FF0000B60
:102F20000090C4F30252022A05D058F8040B002185
:102F3000032A08D008E008F1070020F00702F2E8B1
:102F40000201904603E080B2042A00D1C0B24FF0E3
:102F5000000922072AD53278702A07D0DDF800C090
:102F60008CF0100C5CEA0B0C05D00EE040228DF8C2
:102F70000420012208E050EA010306D030238DF836
:102F800004308DF8052002229146009B83F008034F
:102F900053EA0B030AD150EA010201D1620705D5B9
:102FA00030228DF804204FF001097F1E3278582A14
:102FB00004D039A20C920CAA02920BE03BA2F9E7D2
:102FC0005B46009AFDF7F2FA0C9B9B5C029A521E3C
:102FD0000292137050EA0102F2D1029804A9081A71
:102FE00000F1200B600702D524F4803400E00127B3
:102FF0005F4502DDA7EB0B0000E0002000EB0B01BA
:10300000009003984944401A0390E00306D45346C5
:103010002146179A039800F0A9F90544002706E015
:1030200001A85246C05D179990476D1C7F1C4F4503
:10303000F6DBE0030CD553462146179A039800F0BF
:1030400095F9054404E030205246179990476D1CCD
:103050000099481E00900029F5DC08E002980299CA
:1030600052460078491C0291179990476D1CBBF19C
:103070000001ABF1010BF1DC5BE100F065F9054407
:10308000761C307800287FF40DAE19B02846BDE8D4
:10309000F08F0000092801003031323334353637E3
:1030A0003839616263646566000000003031323394
:1030B0003435363738394142434445460000000034
:1030C000600700D4062708F1070020F00700F0E8A9
:1030D0000223804603F0004C5FEA0C0001D097A069
:1030E00009E0200501D596A005E0E00701D095A0F4
:1030F00001E0AFF24C001390307823F000436528D4
:103100000CD006DC452809D046281DD047287FD1A1
:103110003BE0662818D067287AD136E00021112FCD
:1031200001DB112000E0781CCDE9000104A90CA806
:10313000FFF7EEFCDDE90D010C9A4FF0000B07F1F3
:103140000109109200914EE04FF000400097CDE948
:10315000011004A90CA8FFF7DBFCDDE90D020C9BB4
:103160000F994FF0000B91461093009211B9791C02
:1031700000EB0109B7EB090003D4C0F1FF3B07F1F5
:103180000109A9EB0700019042E0012F00DA0127B5
:103190000021112F01DD112000E03846CDE90001AA
:1031A00004A90CA8FFF7B4FCDDE90D010C9A00910D
:1031B0004FF0000BB946109221070FD4009A4A45F0
:1031C00003DA914601E0A9F10109B9F1010F05DD2A
:1031D000109AA9F10101515C3029F4D0B84202DA09
:1031E00010F1040F03DA0121CDE9011010E00028ED
:1031F00003DC8344A9EB000102E0411C494500DDEA
:103200008946A0EB0B00401C01904FF0004002905B
:10321000200705D40198484502DB4FF0FF300190AC
:1032200000208DF84B0002980DF14B07B0F1004FD4
:1032300025D002200C902B200D90029800280CDA4B
:10324000404202902D200D9007E00A210298FDF7E0
:1032500097F93031029007F8011D0C99481E0C9027
:103260000029F2DC02980028EFD1791E0D98087031
:10327000307800F0200040F0450007F8020D11A85A
:10328000C01BC01D02901398007800B1012000EB14
:103290000901019801EBE071029801440398401A7A
:1032A000401E0390E00306D453462146179A039824
:1032B00000F05CF805441398007818B1524617994D
:1032C00090476D1CE00323D553462146179A039877
:1032D00000F04CF805441BE0BBF1000F07DB009841
:1032E000584504DD1098179910F80B0001E0179964
:1032F00030205246904701980BF1010B401E05F11A
:103300000105019004D12E205246179990476D1C5B
:10331000B9F10001A9F10109DEDC05E017F8010BA4
:103320005246179990476D1C0299481E0290002939
:10333000F4DC53462146179A03989EE62D000000C0
:103340002B000000200000002DE9F041044600257C
:103350001E461746880404D405E039462020B047AD
:103360006D1C641EF9D52846BDE8F0812DE9F041B9
:10337000044600251E469046C80301D5302700E0CC
:103380002027880404D505E041463846B0476D1C27
:10339000641EF9D52846BDE8F08100002DE9F05FF4
:1033A000044634A736A50FF2E808DFF804B1DFF8C9
:1033B00004A1414E0FF204193846FCF759FF82B2BE
:1033C0004FF0FF3339464948FEF770FE4FF47A70EC
:1033D00000F03CF92846FCF74BFF82B24FF0FF3378
:1033E00029464248FEF762FE01F0E2F90025257009
:1033F0004046FCF73DFF82B26B1E41463B48FEF75C
:1034000055FE01F0D5F925705846FCF731FF82B220
:103410006B1E59463548FEF749FE01F0C9F9257083
:103420005046FCF725FF82B26B1E51462F48FEF72F
:103430003DFE01F0BDF925703046FCF719FF82B260
:103440006B1E31462948FEF731FE01F0B1F92570B7
:103450004846FCF70DFF82B26B1E49462348FEF733
:1034600025FE01F0A5F92570012060700020BDE85F
:10347000F09F000041542B5253540D0A00000000ED
:1034800041542B43574D4F44453D330D0A00000036
:1034900041542B43574A41503D2277617474222C8A
:1034A000223132333435363738220D0A000000001D
:1034B00094550008105600087856000841542B4DCA
:1034C0005154545355423D302C222F61316E3937BF
:1034D000574D4F6357422F6465765F312F75736583
:1034E000722F676574222C310D0A0000D80100206C
:1034F00004480021816003490348083148600020E6
:1035000070470000000000209D33000813B54FF6FF
:10351000FF73012269460248FEF7C8FD00981CBDF2
:1035200094010020FDF760FFFFF722F9FEF7F2FF9C
:103530002C482B494FF4E13600240160C0E90164B6
:103540000C25C460C0E904458461C461FEF70EFD2A
:1035500008B172B6FEE72348234944300160C0E950
:103560000164C460C0E904458461C461FEF7FEFCE7
:1035700008B172B6FEE71B481C49543801601C496B
:10358000C0E901144FF48041C0E903414461846102
:10359000C4610462FDF774FC08B172B6FEE711481D
:1035A000802214494430FEF79AFB00F069F80022AB
:1035B0001146012000F0DAF80F49104A0860002196
:1035C0000F4800F063F90F490C4A086124320021CA
:1035D0000D4800F05BF90D49086000F06DF8FEE75A
:1035E0000038014094010020004400400058004091
:1035F000A0860100C000002004000020345500080F
:10360000F9250008140000208D410008100000205A
:1036100070B50C4C0C4D4FF4005122782846FDF744
:1036200024FC22784FF400412846FDF71EFC0122BD
:1036300091032846FDF719FC207880F001002070E6
:1036400070BD0000280000200010014010B5EFF30D
:10365000058149B9EFF3108131B908490968022998
:1036600005D1EFF3118111B16FF0050403E00024DF
:1036700008B100F06FFF204610BD00009000002050
:10368000EFF3058058B9EFF3108040B90949086895
:10369000022801D030B109E0EFF3118030B16FF0B2
:1036A0000500704701200860002070474FF0FF3090
:1036B000704700009000002010B5EFF3058060B95E
:1036C000EFF3108048B90B490868022802D001289E
:1036D00006D00BE0EFF3118040B16FF0050010BD94
:1036E0000220086000F0E6FF002010BD4FF0FF3020
:1036F00010BD000090000020F8B50D460024211FE9
:103700004E1C00280ED000BFEFF305824AB9EFF33C
:10371000108232B9134A1268022A17D1EFF31182CC
:10372000A2B10DB10C461BE000216A46009101F0E8
:103730006FFB012813D1009890B10B494FF08050D6
:103740000860BFF34F8FBFF36F8F09E0294601F088
:10375000ADFB012804D015B16FF0010400E0344640
:103760002046F8BD9000002004ED00E0F8B51446B6
:1037700003460E464FF00005EFF30580E8BBEFF37C
:103780001080D0BB24480068022802D1EFF31180DA
:1037900098BB93B39E423DD84CB1A0680028E06826
:1037A00003D0502836D3012002E008B132E00020D7
:1037B000012B05D010B31846A26801F076F820E07E
:1037C00040B103200090002211460120A36801F0BF
:1037D000B0F804E003220021012001F086F8050082
:1037E00018D086B100231A46194601F019F90128AC
:1037F00009D0284600F060FE00250BE0184601F0D5
:1038000037F8050006D00CB1216800E000212846F9
:1038100000F03EFE2846F8BD9000002038B5002498
:10382000E51E002804D000BFEFF3058169B902E06E
:103830006FF0030423E0EFF3108131B911490968F7
:10384000022914D1EFF3118189B100210091694659
:1038500001F0F4F9012811D1009880B10A494FF024
:1038600080500860BFF34F8FBFF36F8F07E00023D6
:103870001A46194601F0D4F8012800D02C462046FB
:1038800038BD00009000002004ED00E0F0B585B0E8
:103890004FEA01034FF00004EFF305810394A1BB4D
:1038A000EFF3108189BB21490968022902D1EFF3A6
:1038B000118151BB48B3802618218DF8104004AD0A
:1038C00042B3176807B13D4697691FB139467F1E5D
:1038D000382F02D21779FF0702D0002005B0F0BDC3
:1038E000576907B1BE08D2F808C0BCF1000F0DD06F
:1038F000D4685C2C18D312693AB137B18DE8061040
:103900003246294601F0F5FB03900DE0D7685FB918
:1039100012694AB903AACDE90012B2B2294601F0F0
:10392000BBFB012800D003940398D7E79000002048
:103930002DE9F041134C0F46054666692068001DCD
:1039400000F064FC681C07D137B12168BDE8F04184
:103950000D48091D00F0F2BC20683544B5424560B1
:10396000216805D2A068BDE8F041091D00F0CEBC79
:103970006068091D00F0CAFC206B854200D22563F7
:10398000BDE8F08140000020540700202DE9F041FF
:10399000054600F0DFFC2D4C2069401C20612068AA
:1039A0002B4F10B1E06930B32BE02560206901286E
:1039B00027D1002606EB860007EB800000F098FC7C
:1039C000761C382EF6D3234800F092FC21481430A0
:1039D00000F08EFC1F48283000F08AFC1D483C3067
:1039E00000F086FC1B48503000F082FC19486060F3
:1039F0001430A06005E02068E96AC06A884200D8F7
:103A00002560E06A401CE0626864E86AA169884257
:103A100000D9A06100EB800007EB8000291D00F0B9
:103A20008DFC00F0B7FCE06900280CD02068E96A42
:103A3000C06A884207D208494FF080500860BFF33F
:103A40004F8FBFF36F8FBDE8F08100004000002072
:103A5000A40200200407002004ED00E038B500F0C7
:103A600079FC104CA068C8B90F4800F041FC0E4822
:103A7000143000F03DFC0C482060143060600A4BAC
:103A800000202833009003F1500210210A2000F09A
:103A900050FFA06010B105A100F0FAFCBDE838406D
:103AA00000F078BC7C00002068070020546D725143
:103AB0000000000030B4026C0B46002A0BD0C16835
:103AC0001144C1604468A14201D30168C16030BCA7
:103AD0001846FCF797BB30BC70472DE9F041856B69
:103AE000174604460026026C82B1C7B1E068FCF7B5
:103AF00089FBE168206C091AE1602268914202D2D8
:103B00006168081AE060022F16D017E02068A8B993
:103B1000606801F095FB0646002060600EE0A0683A
:103B2000FCF770FB216CA0680844A06061688842C3
:103B300004D32068A06001E005B16D1E6D1CA56373
:103B40003046BDE8F08110B5044690F8590058B1F0
:103B500001280CD002280FD0502080F31188BFF329
:103B60004F8FBFF36F8FFEE7206B00F027FC2046DE
:103B7000BDE8104000F022BC10BD000010484FF41A
:103B80004061420706D0C01D0D4920F00700411AD0
:103B9000C1F540610B4A00230144C2E90003083922
:103BA000103A21F0070111604B600B600B1AC0E95D
:103BB000001393604FF000405360D06070470000E6
:103BC000380F0020A4000020154E164CA6F29C478A
:103BD0004FF08058DFF8509012E000BF00F0BAFBC1
:103BE000F068C568281D00F011FB2069401E2061A7
:103BF000E068401EE06000F0CDFB2846FFF7A3FF21
:103C0000E0680028EAD13868012805D9C9F80080A1
:103C1000BFF34F8FBFF36F8F00F022FBF0E7000080
:103C2000400700204000002004ED00E070B51D4674
:103C3000049C51B1C4F80020C4E90F0101212046C1
:103C400000F0AAFE84F84C5070BD2460F4E72DE922
:103C5000F0470E46DDE909841746824691009946F1
:103C6000089DA522206BFCF7DFFA6FF00301206BA3
:103C700001EB8701084420F00707780707D05020A0
:103C800080F31188BFF34F8FBFF36F8FFEE72218C9
:103C9000315C82F83410315C11B1401C1028F6D32D
:103CA000002684F84360382D00D33725E562C4E947
:103CB0001356201D00F027FB04F1180000F023FB31
:103CC0002461C5F138006462A061666584F85860BB
:103CD0004A465146384600F047FA2060B8F1000FD6
:103CE00001D0C8F80040BDE8F087000030B51149A8
:103CF00000E011460A688242FBD34B685C1884429C
:103D000003D1406818444860084643681C18944230
:103D100009D1084C103C2468A24209D052681A44C8
:103D200042600A6812680260814200D0086030BDBB
:103D30000460F9E7A400002070B5002441600B4D39
:103D40000061914206D8D11A8269914206D2011DC2
:103D5000686807E09A4203D2994201D3012403E044
:103D6000011D286800F0D2FA204670BD7C000020BA
:103D700010B5044600F0EEFAA06B28B15FF0000425
:103D800000F008FB204610BD0124F9E730B589B0EA
:103D9000304D55E00498002806DADDE90601059A61
:103DA0009047049800284BDB069C606910B1201DE9
:103DB00000F02CFA02A800F0B9F8024604980A288C
:103DC0003ED2DFE800F00505053D263705053D2616
:103DD0000598A169034601442046FFF7ADFF00B3F3
:103DE000616A20468847E069012829D100200090B7
:103DF0000598A169002342181946204601F066FB88
:103E000078B9502080F31188BFF34F8FBFF36F8FC5
:103E1000FEE70598A06128B1811813462046FFF7F8
:103E20008BFF0DE0502080F31188BFF34F8FBFF35D
:103E30006F8FFEE794F82C0010B9204600F0BEFA10
:103E4000002204A9A86800F047FF0028A2D109B009
:103E500030BD00007C0000202DE9FC410F460546E6
:103E600000F06CFC01A800F061F80446019818B15C
:103E700001F09AFABDE8FC81224EAFB1706800688B
:103E8000A8B30027291B3A46B06800F041FB01F0B7
:103E90008BFA0028EED11C494FF080500860BFF328
:103EA0004F8FBFF36F8FE5E7A542EBD801F07CFAA7
:103EB00030682746C068C468201D00F0A7F9E06993
:103EC000012810D1A0692B4641193A462046FFF738
:103ED00033FF40B100200346014600902A462046A9
:103EE00001F0F4FA20B1616A20468847C2E707E092
:103EF000502080F31188BFF34F8FBFF36F8FFEE721
:103F00000127BFE77C00002004ED00E0064841687F
:103F1000096829B14168C968C9684968016370477F
:103F20004FF0FF31FAE700004000002070B5054671
:103F300001F018F9064E04463069844203D200F0BD
:103F400009F8012000E0002028602046346170BD9F
:103F50007C000020F8B5194D1FE0C068C4680668F1
:103F6000201D00F053F9616A20468847E069012866
:103F700013D1A0693044B04206D924616060211D8C
:103F8000286800F0C3F908E00020034601460090CD
:103F90003246204601F09AFA38B1286801680029B3
:103FA000DBD16968C5E90010F8BD502080F31188A5
:103FB000BFF34F8FBFF36F8FFEE700007C00002040
:103FC00008484068401C4FF0500080F3118804D02E
:103FD000BFF34F8FBFF36F8FFEE7BFF34F8FBFF37A
:103FE0006F8FFEE7AC000020074C2068016841B1EC
:103FF000C0680021D0F80000FFF72EFFFFF7C6FED3
:10400000F3E701210020F7E77C0000202DE9F041D3
:10401000044600F09FF994F9455004F1240609E0A4
:10402000606A48B1304601F087F908B100F0C0FA83
:104030006D1E6DB2002DF3DC4FF0FF3684F8456045
:1040400000F0A8F900F086F994F9445004F1100743
:1040500009E0206948B1384601F06EF908B100F076
:10406000A7FA6D1E6DB2002DF3DC84F84460BDE844
:10407000F04100F08FB900002DE9F041054600271E
:1040800000F05CFB314E306808B9FFF777FDF0684F
:1040900005424BD1C5B3083568070ED005F00700BF
:1040A000C0F108000544680707D0502080F311884C
:1040B000BFF34F8FBFF36F8FFEE72DB3706885425C
:1040C00034D82248103001460C6801E020460C46E6
:1040D0006168A94202D221680029F7D131688C4277
:1040E00024D007682168016060680837411B1029E7
:1040F0000FD96019420708D0502080F31188BFF310
:104100004F8FBFF36F8FFEE710E041606560FFF7F0
:10411000EDFD61687068401A7060B268904200D22C
:10412000B060F06801430020C4E9000101F03CF9EF
:10413000780707D0502080F31188BFF34F8FBFF36B
:104140006F8FFEE73846BDE8F08100009400002044
:104150000449086818B10868026D521C02650868B5
:10416000704700004000002010B5031F4FF080741E
:104170001C601B1F21F001011960191F024B0B600D
:10418000143940380A6010BDC13F00080025114CA9
:10419000114E4FF0FF3A4FF0010804F10809514663
:1041A0006068FFF7A9FA20880B4935540BA0FEF789
:1041B0007FFC0FA10848FCF749F807460DA1064807
:1041C000FCF744F8002FEAD089F800800AA0FEF737
:1041D0006FFCE4E700000020C00000205B45535066
:1041E0005F4D53475D3A0D0A25730D0A000000002C
:1041F0004F4B0000676574005B4C4F475F4D534762
:104200005D3A2069735F6F6B0D0A0000D0E90132DF
:1042100001699A60D0E901235A604A68824201D15B
:1042200082684A60002202610868401E08600868CF
:1042300070470000034B036003F15C0008608020BE
:104240001060704780080020044B036003F15C009D
:1042500008604FF48070106070470000DC0A002096
:10426000704700002DE9F0411F4CDFF88080606846
:10427000401C0A2190FBF1F2606001FB120008BBB8
:10428000402145464046FCF7E3FD074620212846ED
:10429000FCF7DEFD064610212846FCF7D9FD054651
:1042A000607810B10FB9FFF7B3F9A07810B10EB96B
:1042B000FFF7AEF9E07810B10DB9FFF7A9F9677013
:1042C000A670E57060684FF47A7190FBF1F201FB23
:1042D0001200002805D14046BDE8F0410221FCF75C
:1042E000BCBDBDE8F08100002800002000080140AE
:1042F00000F108014FF0FF32C0E90112C160016115
:1043000000210160704700210161704730B50B68E2
:104310005A1C02D000F1080202E0026904E02246C1
:10432000546825689D42FAD953684B6099608A6049
:10433000516008610168491C016030BD42684A60F3
:1043400093688B6093685960916008610168491CAB
:1043500001607047502080F31188BFF34F8FBFF387
:104360006F8F0A494868401C486001280CD10848F2
:10437000006810F0FF0F07D0502080F31188BFF3C2
:104380004F8FBFF36F8FFEE770470000AC00002037
:1043900004ED00E00849486828B1401E486001D19A
:1043A00080F311887047502080F31188BFF34F8F3E
:1043B000BFF36F8FFEE70000AC00002070B500284F
:1043C00027D0144DA0F108046168E868014207D1C4
:1043D000502080F31188BFF34F8FBFF36F8FFEE73C
:1043E00022683AB1502080F31188BFF34F8FBFF39A
:1043F0006F8FFEE78143616000F0A0F96068696833
:10440000084468602046FFF771FCBDE8704000F08A
:10441000CBBF70BD940000204FF0E020002101616F
:10442000816105494FF47A720968B1FBF2F1491EC6
:1044300041610721016170473C00002010B5FBF786
:10444000A9FE114910280ED300F1E02090F8F003E6
:104450000A78904207D2502080F31188BFF34F8F23
:10446000BFF36F8FFEE709480068896800F4E060D9
:10447000884207D9502080F31188BFF34F8FBFF3D4
:104480006F8FFEE710BD0000AC0000200CED00E0D7
:1044900010B5084B002200BF53F832401CB1521C2B
:1044A000082AF9D310BD43F8321003EBC20148606B
:1044B00010BD00006402002010B504000AD000F016
:1044C00013F894F8460000280CD12046BDE81040AF
:1044D000FFF774BF502080F31188BFF34F8FBFF3F5
:1044E0006F8FFEE710BD0000084A002102EBC103F8
:1044F0005B68834206D1002042F8310002EBC10123
:1045000048607047491C0829F0D3704764020020B6
:1045100070B515460E460446FFF71CFF94F944108B
:104520000020491C01D184F8440094F94510491C2D
:1045300001D184F84500FFF72DFFA06B28B92A466A
:10454000314604F1240000F051F82046BDE87040E7
:10455000FFF75CBD10B5020014D00F48806B38B176
:10456000502080F31188BFF34F8FBFF36F8FFEE7AA
:1045700000F0E4F800211046FFF7DAF900F014FF2C
:10458000002807D105494FF080500860BFF34F8FD6
:10459000BFF36F8F10BD00004000002004ED00E06D
:1045A00002498A6A02604969416070474000002000
:1045B00001490120486270474000002010B50C46B8
:1045C00050B1094909681831FFF7A0FE2046BDE83F
:1045D00010400121FFF7ACB9502080F31188BFF3E0
:1045E0004F8FBFF36F8FFEE74000002070B5144679
:1045F0000D4668B10A4909681831FFF79FFE0CB1F2
:104600004FF0FF3521462846BDE87040FFF790B9CE
:10461000502080F31188BFF34F8FBFF36F8FFEE7F9
:104620004000002070B504003ED0226DA2B1E06CC5
:10463000884200D30146E06A884235D0012A33D14E
:104640001A4D2A6894420FD1502080F31188BFF38D
:104650004F8FBFF36F8FFEE7502080F31188BFF3B9
:104660004F8FBFF36F8FFEE7E162A269002A02DB82
:10467000C1F13801A1610E4E00EB8000616906EBCB
:104680008000814210D1201DFFF7C0FDE06AA969BA
:10469000884200D9A86100EB800006EB8000211D54
:1046A000BDE87040FFF74ABE70BD0000400000202A
:1046B000A402002030B587B00024039405AA04A901
:1046C00003A80494FFF7B6FDDDE903010094CDE9EA
:1046D0000110002315A11748059A00F00AFD164D98
:1046E000002868631FD000F0C1FE012809D0401CDB
:1046F00019D1502080F31188BFF34F8FBFF36F8F14
:10470000FEE7502080F31188BFF34F8FBFF36F8F08
:104710004FF0FF3028630120E8616C6107B0BDE80D
:10472000304000F051B807B030BD000049444C455E
:1047300000000000C93B0008400000200248816BD7
:10474000491C81637047000040000020164810B5E6
:10475000816B11B10121416210BD0021416281696B
:10476000124A01E0B9B1491E01EB810352F823302E
:10477000002BF7D001EB810302EB830202F1080466
:1047800053685B685360A34201D15B685360DA6889
:104790000260816110BD502080F31188BFF34F8FFC
:1047A000BFF36F8FFEE7000040000020A40200204E
:1047B00010B5044C02E06420FEF748FF2078002882
:1047C000F9D010BD080000201CB5264908780190DA
:1047D000FF20087008788DF800009DF800009DF813
:1047E000002000F0F000904207D0502080F31188A4
:1047F000BFF34F8FBFF36F8FFEE79DF800001A4B9A
:1048000000F0500018700720986005E09DF8002027
:1048100052008DF80020401E9DF800201206F5D4AD
:104820009860032807D0502080F31188BFF34F8F82
:10483000BFF36F8FFEE74FF44070986001980870E7
:104840000A48016841F470010160016841F070415B
:104850000160FFF7E1FD00205860FBF765FC0020D8
:104860001CBD000000E400E0AC00002020ED00E0F2
:1048700010B50C4648B184420FD9502080F31188FE
:10488000BFF34F8FBFF36F8FFEE7502080F3118887
:10489000BFF34F8FBFF36F8FFEE70222002100F0BE
:1048A00024F8002800D0846310BD38B50C4648B108
:1048B00084420FD9502080F31188BFF34F8FBFF38C
:1048C0006F8FFEE7502080F31188BFF34F8FBFF347
:1048D0006F8FFEE70221134600220091114600F07F
:1048E00028F8002800D0846338BDF8B517460E4676
:1048F000050014D0DEB105FB06F05030FFF7BCFB1D
:1049000004000AD0002084F8460004F150023B461F
:10491000314628460094FFF789F92046F8BD50201B
:1049200080F31188BFF34F8FBFF36F8FFEE7002036
:10493000E3E738B5049D18B153B1CAB181B120E0A5
:10494000502080F31188BFF34F8FBFF36F8FFEE7C6
:10495000502080F31188BFF34F8FBFF36F8FFEE7B6
:10496000502080F31188BFF34F8FBFF36F8FFEE7A6
:1049700039B1502080F31188BFF34F8FBFF36F8F91
:10498000FEE750241C46012384F846302B46009451
:10499000FFF74CF9204638BD70B50D46040025D010
:1049A000FFF7D8FCD4E90F20216802FB00116160F9
:1049B0000021A1632168A1600A46D4E90F01401ECD
:1049C00000FB0121E16021464FF0FF3001F8440F68
:1049D000487004F110008DB1FFF78AFC04F1240047
:1049E000FFF786FCFFF7D6FC012070BD502080F356
:1049F0001188BFF34F8FBFF36F8FFEE72169002946
:104A0000F0D000F099FC0028ECD004494FF0805021
:104A10000860BFF34F8FBFF36F8FE3E704ED00E053
:104A20002DE9FF4782B01D468A464FF0000804007A
:104A300003D0BAF1000F08D011E0502080F31188A4
:104A4000BFF34F8FBFF36F8FFEE7206C38B150205C
:104A500080F31188BFF34F8FBFF36F8FFEE7022DF6
:104A60000AD1E06B012807D0502080F31188BFF3F2
:104A70004F8FBFF36F8FFEE700F066FB3F4F4FF0A5
:104A800000094FF0805648B9049838B1502080F39F
:104A90001188BFF34F8FBFF36F8FFEE7FFF75AFC0C
:104AA000A06BE16B884207D3022D05D00498D0B1EA
:104AB000B8F1000F1AD01EE02A4651462046FFF7F3
:104AC0000CF8616A19B104F1240000F035FC20B142
:104AD0003E60BFF34F8FBFF36F8FFFF75BFC01208A
:104AE00006B0BDE8F087FFF755FC22E06846FFF707
:104AF00057FD4FF00108FFF74DFCFFF71FFEFFF7D2
:104B000029FC94F94400401C01D184F8449094F9A4
:104B10004500401C01D184F84590FFF73BFC04A9F7
:104B2000684600F07FFA30B12046FFF76FFA00F0D8
:104B30003BFC0020D4E7FFF70DFCA06BE16B884243
:104B400013D1FFF727FC04F110000499FFF736FD9D
:104B50002046FFF75BFA00F027FC00289ED13E605C
:104B6000BFF34F8FBFF36F8F98E7FFF713FC20461B
:104B7000FFF74CFA00F018FC90E7000004ED00E0AD
:104B80002DE9F0471F4690468946040003D0B9F14D
:104B9000000F08D011E0502080F31188BFF34F8F31
:104BA000BFF36F8FFEE7206C38B1502080F311887F
:104BB000BFF34F8FBFF36F8FFEE7022F0AD1E06B79
:104BC000012807D0502080F31188BFF34F8FBFF327
:104BD0006F8FFEE7FFF732FC5020EFF3118680F372
:104BE0001188BFF34F8FBFF36F8FA06BE16B8842CB
:104BF00006D3022F04D0002086F31188BDE8F08789
:104C000094F945503A4649462046FEF766FF681C2F
:104C100004D06D1C84F845500120EDE7606A00283F
:104C2000FAD004F1240000F087FB0028F4D0B8F19A
:104C3000000FF1D00121C8F80010EDE770B50E4665
:104C4000040009D0206C78B1502080F31188BFF3A4
:104C50004F8FBFF36F8FFEE7502080F31188BFF3B3
:104C60004F8FBFF36F8FFEE7206848B9606838B197
:104C7000502080F31188BFF34F8FBFF36F8FFEE793
:104C8000FFF7DCFB5020EFF3118580F31188BFF3B1
:104C90004F8FBFF36F8FA16BE06B884218D994F9E7
:104CA0004500491CA163411C04D0401C84F8450008
:104CB00001200EE0606A0028FAD004F1240000F020
:104CC0003BFB0028F4D0002EF2D001203060EFE74B
:104CD000002085F3118870BD2DE9F747002683B0C9
:104CE0008A46040003D0BAF1000F08D011E050202A
:104CF00080F31188BFF34F8FBFF36F8FFEE7206CF7
:104D000038B1502080F31188BFF34F8FBFF36F8FFE
:104D1000FEE700F019FADFF8F4804FF000094FF0D9
:104D2000805748B9059838B1502080F31188BFF3F7
:104D30004F8FBFF36F8FFEE7FFF70CFBA56BC5B17D
:104D400051462046FEF7B6FE6D1EA563206950B1A0
:104D500004F1100000F0F0FA28B1C8F80070BFF3B9
:104D60004F8FBFF36F8FFFF715FB012006B0BDE833
:104D7000F087059808B11EB106E0FFF70BFB27E0AE
:104D80006846FFF70DFC0126FFF704FBFFF7D6FC92
:104D9000FFF7E0FA94F94400401C01D184F84490F4
:104DA00094F94500401C01D184F84590FFF7F2FAD0
:104DB00005A9684600F036F9002820460AD0FFF71A
:104DC00025F900F0F1FA2046FEF7D2FF0028B3D013
:104DD0000020CBE7FEF7CCFF90B104F12400059949
:104DE000FFF7ECFB2046FFF711F900F0DDFA002891
:104DF000A2D1C8F80070BFF34F8FBFF36F8F9BE74E
:104E00002046FFF703F900F0CFFA95E704ED00E044
:104E10002DE9F04790468946040003D0B9F1000F10
:104E200008D011E0502080F31188BFF34F8FBFF3FB
:104E30006F8FFEE7206C38B1502080F31188BFF3EC
:104E40004F8FBFF36F8FFEE7FFF7F8FA5020EFF3B5
:104E5000118680F31188BFF34F8FBFF36F8FA76B5D
:104E6000F7B194F9445049462046FEF723FE7F1ED1
:104E7000A763681C04D06D1C84F84450012010E026
:104E800020690028FAD004F1100000F055FA00283B
:104E9000F4D0B8F1000FF1D00121C8F80010EDE70F
:104EA000002086F31188BDE8F08700002DE9F34368
:104EB000002683B00400354609D0206C78B150201C
:104EC00080F31188BFF34F8FBFF36F8FFEE7502041
:104ED00080F31188BFF34F8FBFF36F8FFEE700F0B1
:104EE00033F9DFF83C814FF000094FF0805748B9A3
:104EF000049838B1502080F31188BFF34F8FBFF36F
:104F00006F8FFEE7FFF726FAA06BC8B1401EA063C3
:104F1000206810B9FFF71CF96060206950B104F1F6
:104F2000100000F009FA28B1C8F80070BFF34F8FE5
:104F3000BFF36F8FFFF72EFA012005B0BDE8F083B5
:104F4000049808B166B10FE03DB1502080F311889C
:104F5000BFF34F8FBFF36F8FFEE7FFF71BFA5DE0E4
:104F60006846FFF71DFB0126FFF714FAFFF7E6FB83
:104F7000FFF7F0F994F94400401C01D184F8449003
:104F800094F94500401C01D184F84590FFF702FADE
:104F900004A9684600F046F80028204612D0FFF722
:104FA00035F800F001FA2046FEF7E2FE0028A9D00D
:104FB0009DB3FFF7CFF9606A50B3206B0068C0F172
:104FC000380126E0FEF7D4FEE0B1206838B9FFF7DB
:104FD000C1F9606800F074F90546FFF7DBF904F1E8
:104FE00024000499FFF7EAFA2046FFF70FF800F0D3
:104FF000DBF9002886D1C8F80070BFF34F8FBFF3EC
:105000006F8F7FE72046FFF701F800F0CDF979E7D1
:1050100000216068FFF706FB9FE7FFE700208CE7B1
:1050200004ED00E02DE9F0410C46050011D0C4B1BB
:10503000FFF790F9174B5A696E682068911B471C5F
:1050400017D02F689B6A9F4219D0964217D8012427
:1050500010E0502080F31188BFF34F8FBFF36F8FA4
:10506000FEE7502080F31188BFF34F8FBFF36F8F9F
:10507000FEE70024FFF78EF92046BDE8F081884264
:1050800005D9401A20602846FFF78AFAF1E7002088
:105090002060DCE7400000202DE9FF5F8346DDE96A
:1050A0000E87994616468A469000FEF7E5FF0500F2
:1050B0001CD05C20FEF7E0FF040014D00020256324
:1050C00084F85900CDE90240CDE900874B463246CD
:1050D00051465846FEF7BBFD2046FEF757FC01201F
:1050E00004B0BDE8F09F2846FFF768F94FF0FF30A5
:1050F000F6E7F0B585B0DDE90B640A9DA6B1DCB139
:105100005C2700972663022684F85960002604AFC6
:10511000CDE90246CDE90057FEF799FD2046FEF79E
:1051200035FC049805B0F0BD502080F31188BFF322
:105130004F8FBFF36F8FFEE7502080F31188BFF3CE
:105140004F8FBFF36F8FFEE70548C16919B1806BC0
:1051500018B10020704701207047022070470000FE
:1051600040000020014840697047000040000020D6
:105170002DE9F041304C0027A06B18B1206A401C8B
:10518000206251E06669761C666113D16068006830
:1051900038B1502080F31188BFF34F8FBFF36F8F6A
:1051A000FEE76068A1686160A060A06A401CA06220
:1051B000FEF7ACFE206BDFF88480864209D360687E
:1051C000006890B16068C068C568686886420FD2A0
:1051D00020632068C06A00EB800158F82100012894
:1051E00000D90127206AF8B120E04FF0FF30EFE747
:1051F000281DFFF70BF8A86A18B105F11800FFF792
:1052000005F8E86AA169884200D9A06100EB800135
:1052100008EB8100291DFFF791F8E86A2168C96A47
:105220008842CCD30127CAE7FFF71CF8606A00B1B7
:1052300001273846BDE8F08140000020A40200208C
:1052400070B504004FF0000133D01B4D2868844234
:1052500007D0502080F31188BFF34F8FBFF36F8FBB
:10526000FEE7206D38B1401E2065E36CE26A9A4289
:105270001FD040B11DE0502080F31188BFF34F8F45
:10528000BFF36F8FFEE7201DFEF7C0FFE06CE0620A
:10529000C0F13800A061E06AA969884200D9A8611C
:1052A000064900EB800001EB8000211DFFF746F866
:1052B0000121084670BD000040000020A40200202B
:1052C00070B504004FF000002BD0194DE16A2A6838
:1052D000D26A914226D2A069002804DB2868C06AFD
:1052E000C0F13800A061134E01EB8101606906EB4B
:1052F0008101884211D1201DFEF788FF2868C06A0D
:10530000E062A969884200D9A86100EB800006EB41
:105310008000211DFFF712F802E02868C06AE062F1
:10532000012070BDE16C2A68D26A9142F8D370BD49
:1053300040000020A402002070B5C068C46854B1C9
:1053400004F118000646FEF761FF144DA86B50B13A
:105350003146134815E0502080F31188BFF34F8F7A
:10536000BFF36F8FFEE7201DFEF750FFE06AA969CB
:10537000884200D9A8610B4900EB800001EB800056
:10538000211DFEF7DBFFE06A2968C96A884202D95D
:105390000120686270BD002070BD00004000002048
:1053A0002C070020A40200202DE9F0472C4D0024FA
:1053B0002746A86B38B1FEF7CDFFA86B401EA86347
:1053C000A86B40B146E0502080F31188BFF34F8FA7
:1053D000BFF36F8FFEE72969224E0120D1B3A6F5F6
:1053E000916980463068E0B1F068C46804F1180043
:1053F000FEF70CFF201DFEF709FFE06AA96988424D
:1054000000D9A86100EB800109EB8100211DFEF7A6
:1054100095FFE06A2968C96A8842E3D3C5F8248009
:10542000E0E70CB1FEF772FD2C6A4CB14FEA0806BA
:10543000FFF79EFE00B16E62641EF9D10020286263
:10544000686A38B10849012738070860BFF34F8FF1
:10545000BFF36F8FFEF79EFF3846BDE8F087000070
:10546000400000202C07002004ED00E010B586B0BD
:10547000FEF7F4FA114CA068B8B100200390049034
:1054800005AA04A903A8FEF7DFFEDDE90321022037
:105490008DE8070000230AA10B48059AFFF729FEB3
:1054A000E06010B106B0012010BD502080F31188DB
:1054B000BFF34F8FBFF36F8FFEE700007C0000202B
:1054C000546D722053766300E93F00082DE9FF41D7
:1054D0001E46134602000A9D4FF0000016D0144CE1
:1054E000A768002F0FD0CDE900130292062917DA22
:1054F000FFF72AFE02284FF000030FD00022694672
:10550000A068FFF78DFA04B0BDE8F081502080F369
:105510001188BFF34F8FBFF36F8FFEE72A46EEE788
:105520000023324669463846FFF72AFBEBE70000C6
:105530007C000020C45600080000000000000000AD
:1055400000000000000000008000000018000000C3
:105550000000000000000000D0560008000000001D
:10556000000000000000000000000000000100003A
:105570001800000000000000000000000000000013
:1055800000000000010203040607080900000000F3
:105590000102030441542B4D515454555345524379
:1055A00046473D302C312C224E554C4C222C226447
:1055B00065765F312661316E3937574D4F635742FB
:1055C000222C2236653030376662393738396366C7
:1055D000366362663166306133336162346131371C
:1055E00061333464373738373838363031623033E6
:1055F0006461303364366162626163306663613373
:10560000376134222C302C302C22220D0A0000006D
:1056100041542B4D515454434C49454E5449443DFB
:10562000302C2261316E3937574D4F6357422E640B
:1056300065765F317C7365637572656D6F64653D1A
:10564000325C2C7369676E6D6574686F643D686D5C
:1056500061637368613235365C2C74696D6573748F
:10566000616D703D31363833363739373837303041
:10567000347C220D0A00000041542B4D51545443F8
:105680004F4E4E3D302C2261316E3937574D4F63AE
:1056900057422E696F742D61732D6D7174742E6372
:1056A0006E2D7368616E676861692E616C697975CA
:1056B0006E63732E636F6D222C313838332C310DAD
:1056C0000A00000064656661756C745461736B0058
:1056D000726563765F7461736B5F617474720000EE
:1056E0000057000800000020C0000000F02A000859
:1056F000C0570008C0000020781E0000002B0008E2
:105700000000000000000000000000000000000099
:105710000000000000000000000000000000000089
:105720000000000000000000010101010000000075
:105730000100000010000000000000000024F40040
:105740000000000000000000000000000000000059
:105750000000000000000000000000000000000049
:105760000000000000000000000000000000000039
:105770000000000000000000000000000000000029
:105780000000000000000000000000000000000019
:105790000000000000000000000000000000000009
:1057A00000000000000000000000000000000000F9
:1057B000AAAAAAAA00000000000000000000000041
:04000005080000ED02
:00000001FF
